{
  "_format": "hh-sol-artifact-1",
  "contractName": "Final",
  "sourceName": "contracts/Final.sol",
  "abi": [
    {
      "inputs": [],
      "stateMutability": "nonpayable",
      "type": "constructor"
    },
    {
      "inputs": [
        {
          "internalType": "address",
          "name": "",
          "type": "address"
        },
        {
          "internalType": "uint256",
          "name": "",
          "type": "uint256"
        }
      ],
      "name": "betIdsByAddress",
      "outputs": [
        {
          "internalType": "uint256",
          "name": "",
          "type": "uint256"
        }
      ],
      "stateMutability": "view",
      "type": "function"
    },
    {
      "inputs": [
        {
          "internalType": "uint256",
          "name": "",
          "type": "uint256"
        }
      ],
      "name": "betInfo",
      "outputs": [
        {
          "internalType": "uint256",
          "name": "betId",
          "type": "uint256"
        },
        {
          "internalType": "address",
          "name": "walletAddress",
          "type": "address"
        },
        {
          "internalType": "uint256",
          "name": "gameResult",
          "type": "uint256"
        },
        {
          "internalType": "bool",
          "name": "payed",
          "type": "bool"
        }
      ],
      "stateMutability": "view",
      "type": "function"
    },
    {
      "inputs": [],
      "name": "betPrice",
      "outputs": [
        {
          "internalType": "uint256",
          "name": "",
          "type": "uint256"
        }
      ],
      "stateMutability": "view",
      "type": "function"
    },
    {
      "inputs": [
        {
          "internalType": "address",
          "name": "_betterAddress",
          "type": "address"
        }
      ],
      "name": "checkAddress",
      "outputs": [
        {
          "internalType": "uint256",
          "name": "",
          "type": "uint256"
        }
      ],
      "stateMutability": "view",
      "type": "function"
    },
    {
      "inputs": [],
      "name": "currentBetId",
      "outputs": [
        {
          "internalType": "uint256",
          "name": "",
          "type": "uint256"
        }
      ],
      "stateMutability": "view",
      "type": "function"
    },
    {
      "inputs": [
        {
          "internalType": "uint256",
          "name": "",
          "type": "uint256"
        },
        {
          "internalType": "uint256",
          "name": "",
          "type": "uint256"
        }
      ],
      "name": "gameValues",
      "outputs": [
        {
          "internalType": "uint256",
          "name": "",
          "type": "uint256"
        }
      ],
      "stateMutability": "view",
      "type": "function"
    },
    {
      "inputs": [],
      "name": "getRandomNumber",
      "outputs": [
        {
          "internalType": "uint256",
          "name": "",
          "type": "uint256"
        },
        {
          "internalType": "uint256",
          "name": "",
          "type": "uint256"
        },
        {
          "internalType": "uint256",
          "name": "",
          "type": "uint256"
        },
        {
          "internalType": "uint256",
          "name": "",
          "type": "uint256"
        },
        {
          "internalType": "uint256",
          "name": "",
          "type": "uint256"
        }
      ],
      "stateMutability": "view",
      "type": "function"
    },
    {
      "inputs": [
        {
          "internalType": "address",
          "name": "_betterAddress",
          "type": "address"
        }
      ],
      "name": "getReward",
      "outputs": [],
      "stateMutability": "nonpayable",
      "type": "function"
    },
    {
      "inputs": [
        {
          "internalType": "address",
          "name": "_betterAddress",
          "type": "address"
        },
        {
          "internalType": "uint256",
          "name": "userValue1",
          "type": "uint256"
        },
        {
          "internalType": "uint256",
          "name": "userValue2",
          "type": "uint256"
        },
        {
          "internalType": "uint256",
          "name": "userValue3",
          "type": "uint256"
        },
        {
          "internalType": "uint256",
          "name": "userValue4",
          "type": "uint256"
        },
        {
          "internalType": "uint256",
          "name": "userValue5",
          "type": "uint256"
        }
      ],
      "name": "makeBet",
      "outputs": [],
      "stateMutability": "payable",
      "type": "function"
    },
    {
      "inputs": [
        {
          "internalType": "uint256",
          "name": "userValue1",
          "type": "uint256"
        },
        {
          "internalType": "uint256",
          "name": "userValue2",
          "type": "uint256"
        },
        {
          "internalType": "uint256",
          "name": "userValue3",
          "type": "uint256"
        },
        {
          "internalType": "uint256",
          "name": "userValue4",
          "type": "uint256"
        },
        {
          "internalType": "uint256",
          "name": "userValue5",
          "type": "uint256"
        }
      ],
      "name": "playGame",
      "outputs": [
        {
          "internalType": "uint256",
          "name": "",
          "type": "uint256"
        },
        {
          "internalType": "uint256[5]",
          "name": "",
          "type": "uint256[5]"
        }
      ],
      "stateMutability": "view",
      "type": "function"
    },
    {
      "inputs": [
        {
          "internalType": "uint256",
          "name": "",
          "type": "uint256"
        },
        {
          "internalType": "uint256",
          "name": "",
          "type": "uint256"
        }
      ],
      "name": "userValues",
      "outputs": [
        {
          "internalType": "uint256",
          "name": "",
          "type": "uint256"
        }
      ],
      "stateMutability": "view",
      "type": "function"
    }
  ],
  "bytecode": "0x608060405234801561001057600080fd5b5060008081905550600180819055506119f28061002e6000396000f3fe60806040526004361061009c5760003560e01c80635b4a9b51116100645780635b4a9b51146101b55780637190fd65146101e057806374ce97221461021d578063c00007b01461025a578063cfd8a17514610283578063dbdff2c1146102ae5761009c565b80630ddcfe8e146100a15780632b6e2e84146100de5780632d629ed4146100fa5780633c1c55971461013a5780633e96d09a14610178575b600080fd5b3480156100ad57600080fd5b506100c860048036038101906100c39190611148565b6102dd565b6040516100d5919061118e565b60405180910390f35b6100f860048036038101906100f391906111d5565b610329565b005b34801561010657600080fd5b50610121600480360381019061011c9190611262565b610537565b60405161013194939291906112b9565b60405180910390f35b34801561014657600080fd5b50610161600480360381019061015c91906112fe565b610594565b60405161016f929190611424565b60405180910390f35b34801561018457600080fd5b5061019f600480360381019061019a919061144d565b610708565b6040516101ac919061118e565b60405180910390f35b3480156101c157600080fd5b506101ca610739565b6040516101d7919061118e565b60405180910390f35b3480156101ec57600080fd5b506102076004803603810190610202919061148d565b61073f565b604051610214919061118e565b60405180910390f35b34801561022957600080fd5b50610244600480360381019061023f919061144d565b610770565b604051610251919061118e565b60405180910390f35b34801561026657600080fd5b50610281600480360381019061027c9190611148565b6107a1565b005b34801561028f57600080fd5b50610298610dde565b6040516102a5919061118e565b60405180910390f35b3480156102ba57600080fd5b506102c3610de4565b6040516102d49594939291906114cd565b60405180910390f35b6000600960008373ffffffffffffffffffffffffffffffffffffffff1673ffffffffffffffffffffffffffffffffffffffff168152602001908152602001600020805490509050919050565b662386f26fc1000060015461033e919061154f565b8673ffffffffffffffffffffffffffffffffffffffff16311061052f5760008061036b8787878787610594565b91509150604051806080016040528060005481526020018973ffffffffffffffffffffffffffffffffffffffff1681526020018381526020016000151581525060066000805481526020019081526020016000206000820151816000015560208201518160010160006101000a81548173ffffffffffffffffffffffffffffffffffffffff021916908373ffffffffffffffffffffffffffffffffffffffff1602179055506040820151816002015560608201518160030160006101000a81548160ff0219169083151502179055509050506040518060a00160405280888152602001878152602001868152602001858152602001848152506008600080548152602001908152602001600020906005610486929190611059565b508060076000805481526020019081526020016000209060056104aa929190611059565b50600960008973ffffffffffffffffffffffffffffffffffffffff1673ffffffffffffffffffffffffffffffffffffffff168152602001908152602001600020600054908060018154018082558091505060019003906000526020600020016000909190919091505560016000808282546105259190611591565b9250508190555050505b505050505050565b60066020528060005260406000206000915090508060000154908060010160009054906101000a900473ffffffffffffffffffffffffffffffffffffffff16908060020154908060030160009054906101000a900460ff16905084565b600061059e6110a6565b6000808060008060006105af610de4565b945094509450945094506105c16110a6565b6040518060a0016040528087815260200186815260200185815260200184815260200183815250905060005b60058110156106f0578e82826005811061060a576106096115c5565b5b602002015103610624576001886106219190611591565b97505b8d828260058110610638576106376115c5565b5b6020020151036106525760018861064f9190611591565b97505b8c828260058110610666576106656115c5565b5b6020020151036106805760018861067d9190611591565b97505b8b828260058110610694576106936115c5565b5b6020020151036106ae576001886106ab9190611591565b97505b8a8282600581106106c2576106c16115c5565b5b6020020151036106dc576001886106d99190611591565b97505b6001816106e99190611591565b90506105ed565b87829950995050505050505050509550959350505050565b6007602052816000526040600020818154811061072457600080fd5b90600052602060002001600091509150505481565b60005481565b6009602052816000526040600020818154811061075b57600080fd5b90600052602060002001600091509150505481565b6008602052816000526040600020818154811061078c57600080fd5b90600052602060002001600091509150505481565b6000805b600960008473ffffffffffffffffffffffffffffffffffffffff1673ffffffffffffffffffffffffffffffffffffffff16815260200190815260200160002080549050821015610ce0576000600960008573ffffffffffffffffffffffffffffffffffffffff1673ffffffffffffffffffffffffffffffffffffffff1681526020019081526020016000208381548110610842576108416115c5565b5b9060005260206000200154905060006006600083815260200190815260200160002060030160009054906101000a900460ff16905080610cca57600060066000848152602001908152602001600020600201549050600181036109705760008673ffffffffffffffffffffffffffffffffffffffff166002662386f26fc100006001546108cf919061154f565b6108d99190611623565b6040516108e590611685565b60006040518083038185875af1925050503d8060008114610922576040519150601f19603f3d011682016040523d82523d6000602084013e610927565b606091505b505090508061096b576040517f08c379a0000000000000000000000000000000000000000000000000000000008152600401610962906116f7565b60405180910390fd5b809450505b60028103610a3d5760008673ffffffffffffffffffffffffffffffffffffffff16662386f26fc100006001546109a6919061154f565b6040516109b290611685565b60006040518083038185875af1925050503d80600081146109ef576040519150601f19603f3d011682016040523d82523d6000602084013e6109f4565b606091505b5050905080610a38576040517f08c379a0000000000000000000000000000000000000000000000000000000008152600401610a2f906116f7565b60405180910390fd5b809450505b60038103610b165760008673ffffffffffffffffffffffffffffffffffffffff16662386f26fc100006002600154610a75919061154f565b610a7f919061154f565b604051610a8b90611685565b60006040518083038185875af1925050503d8060008114610ac8576040519150601f19603f3d011682016040523d82523d6000602084013e610acd565b606091505b5050905080610b11576040517f08c379a0000000000000000000000000000000000000000000000000000000008152600401610b08906116f7565b60405180910390fd5b809450505b60048103610bef5760008673ffffffffffffffffffffffffffffffffffffffff16662386f26fc100006005600154610b4e919061154f565b610b58919061154f565b604051610b6490611685565b60006040518083038185875af1925050503d8060008114610ba1576040519150601f19603f3d011682016040523d82523d6000602084013e610ba6565b606091505b5050905080610bea576040517f08c379a0000000000000000000000000000000000000000000000000000000008152600401610be1906116f7565b60405180910390fd5b809450505b60058103610cc85760008673ffffffffffffffffffffffffffffffffffffffff16662386f26fc10000600a600154610c27919061154f565b610c31919061154f565b604051610c3d90611685565b60006040518083038185875af1925050503d8060008114610c7a576040519150601f19603f3d011682016040523d82523d6000602084013e610c7f565b606091505b5050905080610cc3576040517f08c379a0000000000000000000000000000000000000000000000000000000008152600401610cba906116f7565b60405180910390fd5b809450505b505b600184610cd79190611591565b935050506107a5565b8015610dd95760005b600960008573ffffffffffffffffffffffffffffffffffffffff1673ffffffffffffffffffffffffffffffffffffffff16815260200190815260200160002080549050811015610dd7576000600960008673ffffffffffffffffffffffffffffffffffffffff1673ffffffffffffffffffffffffffffffffffffffff1681526020019081526020016000208281548110610d8657610d856115c5565b5b9060005260206000200154905060016006600083815260200190815260200160002060030160006101000a81548160ff021916908315150217905550600182610dcf9190611591565b915050610ce9565b505b505050565b60015481565b600080600080600080600160634244604051602001610e04929190611738565b6040516020818303038152906040528051906020012060001c610e279190611764565b610e319190611591565b905060006001606332600143610e479190611795565b4042604051602001610e5b9392919061183c565b6040516020818303038152906040528051906020012060001c610e7e9190611764565b610e889190611591565b9050818103610ead578080610e9c90611879565b91505060648103610eac57600190505b5b6000600160634233604051602001610ec69291906118c1565b6040516020818303038152906040528051906020012060001c610ee99190611764565b610ef39190611591565b905082811480610f0257508181145b15610f2457600281610f149190611591565b905060648210610f2357600291505b5b6000600160633242434433604051602001610f439594939291906118ed565b6040516020818303038152906040528051906020012060001c610f669190611764565b610f709190611591565b905083811480610f7f57508281145b80610f8957508181145b15610fab57600381610f9b9190611591565b905060648110610faa57600390505b5b600060016063324243443342604051602001610fcc9695949392919061194c565b6040516020818303038152906040528051906020012060001c610fef9190611764565b610ff99190611591565b90508481148061100857508381145b8061101257508281145b8061101c57508181145b1561103e5760048161102e9190611591565b90506064811061103d57600490505b5b84848484849950995099509950995050505050509091929394565b828054828255906000526020600020908101928215611095579160200282015b82811115611094578251825591602001919060010190611079565b5b5090506110a291906110c8565b5090565b6040518060a00160405280600590602082028036833780820191505090505090565b5b808211156110e15760008160009055506001016110c9565b5090565b600080fd5b600073ffffffffffffffffffffffffffffffffffffffff82169050919050565b6000611115826110ea565b9050919050565b6111258161110a565b811461113057600080fd5b50565b6000813590506111428161111c565b92915050565b60006020828403121561115e5761115d6110e5565b5b600061116c84828501611133565b91505092915050565b6000819050919050565b61118881611175565b82525050565b60006020820190506111a3600083018461117f565b92915050565b6111b281611175565b81146111bd57600080fd5b50565b6000813590506111cf816111a9565b92915050565b60008060008060008060c087890312156111f2576111f16110e5565b5b600061120089828a01611133565b965050602061121189828a016111c0565b955050604061122289828a016111c0565b945050606061123389828a016111c0565b935050608061124489828a016111c0565b92505060a061125589828a016111c0565b9150509295509295509295565b600060208284031215611278576112776110e5565b5b6000611286848285016111c0565b91505092915050565b6112988161110a565b82525050565b60008115159050919050565b6112b38161129e565b82525050565b60006080820190506112ce600083018761117f565b6112db602083018661128f565b6112e8604083018561117f565b6112f560608301846112aa565b95945050505050565b600080600080600060a0868803121561131a576113196110e5565b5b6000611328888289016111c0565b9550506020611339888289016111c0565b945050604061134a888289016111c0565b935050606061135b888289016111c0565b925050608061136c888289016111c0565b9150509295509295909350565b600060059050919050565b600081905092915050565b6000819050919050565b6113a281611175565b82525050565b60006113b48383611399565b60208301905092915050565b6000602082019050919050565b6113d681611379565b6113e08184611384565b92506113eb8261138f565b8060005b8381101561141c57815161140387826113a8565b965061140e836113c0565b9250506001810190506113ef565b505050505050565b600060c082019050611439600083018561117f565b61144660208301846113cd565b9392505050565b60008060408385031215611464576114636110e5565b5b6000611472858286016111c0565b9250506020611483858286016111c0565b9150509250929050565b600080604083850312156114a4576114a36110e5565b5b60006114b285828601611133565b92505060206114c3858286016111c0565b9150509250929050565b600060a0820190506114e2600083018861117f565b6114ef602083018761117f565b6114fc604083018661117f565b611509606083018561117f565b611516608083018461117f565b9695505050505050565b7f4e487b7100000000000000000000000000000000000000000000000000000000600052601160045260246000fd5b600061155a82611175565b915061156583611175565b925082820261157381611175565b9150828204841483151761158a57611589611520565b5b5092915050565b600061159c82611175565b91506115a783611175565b92508282019050808211156115bf576115be611520565b5b92915050565b7f4e487b7100000000000000000000000000000000000000000000000000000000600052603260045260246000fd5b7f4e487b7100000000000000000000000000000000000000000000000000000000600052601260045260246000fd5b600061162e82611175565b915061163983611175565b925082611649576116486115f4565b5b828204905092915050565b600081905092915050565b50565b600061166f600083611654565b915061167a8261165f565b600082019050919050565b600061169082611662565b9150819050919050565b600082825260208201905092915050565b7f6661696c656420746f2073656e64000000000000000000000000000000000000600082015250565b60006116e1600e8361169a565b91506116ec826116ab565b602082019050919050565b60006020820190508181036000830152611710816116d4565b9050919050565b6000819050919050565b61173261172d82611175565b611717565b82525050565b60006117448285611721565b6020820191506117548284611721565b6020820191508190509392505050565b600061176f82611175565b915061177a83611175565b92508261178a576117896115f4565b5b828206905092915050565b60006117a082611175565b91506117ab83611175565b92508282039050818111156117c3576117c2611520565b5b92915050565b60008160601b9050919050565b60006117e1826117c9565b9050919050565b60006117f3826117d6565b9050919050565b61180b6118068261110a565b6117e8565b82525050565b6000819050919050565b6000819050919050565b61183661183182611811565b61181b565b82525050565b600061184882866117fa565b6014820191506118588285611825565b6020820191506118688284611721565b602082019150819050949350505050565b600061188482611175565b91507fffffffffffffffffffffffffffffffffffffffffffffffffffffffffffffffff82036118b6576118b5611520565b5b600182019050919050565b60006118cd8285611721565b6020820191506118dd82846117fa565b6014820191508190509392505050565b60006118f982886117fa565b6014820191506119098287611721565b6020820191506119198286611721565b6020820191506119298285611721565b60208201915061193982846117fa565b6014820191508190509695505050505050565b600061195882896117fa565b6014820191506119688288611721565b6020820191506119788287611721565b6020820191506119888286611721565b60208201915061199882856117fa565b6014820191506119a88284611721565b60208201915081905097965050505050505056fea2646970667358221220f3ba80241113aa621deb60dab4ce21049b3f26452f9229eef202ea33ac13a2e464736f6c63430008130033",
  "linkReferences": {},
  "deployedLinkReferences": {}
}