{"contracts/Final.sol":{"Final":{"abi":[{"inputs":[],"stateMutability":"nonpayable","type":"constructor"},{"inputs":[{"internalType":"address","name":"","type":"address"},{"internalType":"uint256","name":"","type":"uint256"}],"name":"betIdsByAddress","outputs":[{"internalType":"uint256","name":"","type":"uint256"}],"stateMutability":"view","type":"function"},{"inputs":[{"internalType":"uint256","name":"","type":"uint256"}],"name":"betInfo","outputs":[{"internalType":"uint256","name":"betId","type":"uint256"},{"internalType":"address","name":"walletAddress","type":"address"},{"internalType":"uint256","name":"gameResult","type":"uint256"},{"internalType":"bool","name":"payed","type":"bool"}],"stateMutability":"view","type":"function"},{"inputs":[],"name":"betPrice","outputs":[{"internalType":"uint256","name":"","type":"uint256"}],"stateMutability":"view","type":"function"},{"inputs":[{"internalType":"address","name":"_betterAddress","type":"address"}],"name":"checkAddress","outputs":[{"internalType":"uint256","name":"","type":"uint256"}],"stateMutability":"view","type":"function"},{"inputs":[],"name":"currentBetId","outputs":[{"internalType":"uint256","name":"","type":"uint256"}],"stateMutability":"view","type":"function"},{"inputs":[{"internalType":"uint256","name":"","type":"uint256"},{"internalType":"uint256","name":"","type":"uint256"}],"name":"gameValues","outputs":[{"internalType":"uint256","name":"","type":"uint256"}],"stateMutability":"view","type":"function"},{"inputs":[],"name":"getRandomNumber","outputs":[{"internalType":"uint256","name":"","type":"uint256"},{"internalType":"uint256","name":"","type":"uint256"},{"internalType":"uint256","name":"","type":"uint256"},{"internalType":"uint256","name":"","type":"uint256"},{"internalType":"uint256","name":"","type":"uint256"}],"stateMutability":"view","type":"function"},{"inputs":[{"internalType":"address","name":"_betterAddress","type":"address"}],"name":"getReward","outputs":[],"stateMutability":"nonpayable","type":"function"},{"inputs":[{"internalType":"address","name":"_betterAddress","type":"address"},{"internalType":"uint256","name":"userValue1","type":"uint256"},{"internalType":"uint256","name":"userValue2","type":"uint256"},{"internalType":"uint256","name":"userValue3","type":"uint256"},{"internalType":"uint256","name":"userValue4","type":"uint256"},{"internalType":"uint256","name":"userValue5","type":"uint256"}],"name":"makeBet","outputs":[],"stateMutability":"payable","type":"function"},{"inputs":[{"internalType":"uint256","name":"userValue1","type":"uint256"},{"internalType":"uint256","name":"userValue2","type":"uint256"},{"internalType":"uint256","name":"userValue3","type":"uint256"},{"internalType":"uint256","name":"userValue4","type":"uint256"},{"internalType":"uint256","name":"userValue5","type":"uint256"}],"name":"playGame","outputs":[{"internalType":"uint256","name":"","type":"uint256"},{"internalType":"uint256[5]","name":"","type":"uint256[5]"}],"stateMutability":"view","type":"function"},{"inputs":[{"internalType":"uint256","name":"","type":"uint256"},{"internalType":"uint256","name":"","type":"uint256"}],"name":"userValues","outputs":[{"internalType":"uint256","name":"","type":"uint256"}],"stateMutability":"view","type":"function"}],"evm":{"bytecode":{"linkReferences":{},"object":"608060405234801561001057600080fd5b5060008081905550600180819055506119f28061002e6000396000f3fe60806040526004361061009c5760003560e01c80635b4a9b51116100645780635b4a9b51146101b55780637190fd65146101e057806374ce97221461021d578063c00007b01461025a578063cfd8a17514610283578063dbdff2c1146102ae5761009c565b80630ddcfe8e146100a15780632b6e2e84146100de5780632d629ed4146100fa5780633c1c55971461013a5780633e96d09a14610178575b600080fd5b3480156100ad57600080fd5b506100c860048036038101906100c39190611148565b6102dd565b6040516100d5919061118e565b60405180910390f35b6100f860048036038101906100f391906111d5565b610329565b005b34801561010657600080fd5b50610121600480360381019061011c9190611262565b610537565b60405161013194939291906112b9565b60405180910390f35b34801561014657600080fd5b50610161600480360381019061015c91906112fe565b610594565b60405161016f929190611424565b60405180910390f35b34801561018457600080fd5b5061019f600480360381019061019a919061144d565b610708565b6040516101ac919061118e565b60405180910390f35b3480156101c157600080fd5b506101ca610739565b6040516101d7919061118e565b60405180910390f35b3480156101ec57600080fd5b506102076004803603810190610202919061148d565b61073f565b604051610214919061118e565b60405180910390f35b34801561022957600080fd5b50610244600480360381019061023f919061144d565b610770565b604051610251919061118e565b60405180910390f35b34801561026657600080fd5b50610281600480360381019061027c9190611148565b6107a1565b005b34801561028f57600080fd5b50610298610dde565b6040516102a5919061118e565b60405180910390f35b3480156102ba57600080fd5b506102c3610de4565b6040516102d49594939291906114cd565b60405180910390f35b6000600960008373ffffffffffffffffffffffffffffffffffffffff1673ffffffffffffffffffffffffffffffffffffffff168152602001908152602001600020805490509050919050565b662386f26fc1000060015461033e919061154f565b8673ffffffffffffffffffffffffffffffffffffffff16311061052f5760008061036b8787878787610594565b91509150604051806080016040528060005481526020018973ffffffffffffffffffffffffffffffffffffffff1681526020018381526020016000151581525060066000805481526020019081526020016000206000820151816000015560208201518160010160006101000a81548173ffffffffffffffffffffffffffffffffffffffff021916908373ffffffffffffffffffffffffffffffffffffffff1602179055506040820151816002015560608201518160030160006101000a81548160ff0219169083151502179055509050506040518060a00160405280888152602001878152602001868152602001858152602001848152506008600080548152602001908152602001600020906005610486929190611059565b508060076000805481526020019081526020016000209060056104aa929190611059565b50600960008973ffffffffffffffffffffffffffffffffffffffff1673ffffffffffffffffffffffffffffffffffffffff168152602001908152602001600020600054908060018154018082558091505060019003906000526020600020016000909190919091505560016000808282546105259190611591565b9250508190555050505b505050505050565b60066020528060005260406000206000915090508060000154908060010160009054906101000a900473ffffffffffffffffffffffffffffffffffffffff16908060020154908060030160009054906101000a900460ff16905084565b600061059e6110a6565b6000808060008060006105af610de4565b945094509450945094506105c16110a6565b6040518060a0016040528087815260200186815260200185815260200184815260200183815250905060005b60058110156106f0578e82826005811061060a576106096115c5565b5b602002015103610624576001886106219190611591565b97505b8d828260058110610638576106376115c5565b5b6020020151036106525760018861064f9190611591565b97505b8c828260058110610666576106656115c5565b5b6020020151036106805760018861067d9190611591565b97505b8b828260058110610694576106936115c5565b5b6020020151036106ae576001886106ab9190611591565b97505b8a8282600581106106c2576106c16115c5565b5b6020020151036106dc576001886106d99190611591565b97505b6001816106e99190611591565b90506105ed565b87829950995050505050505050509550959350505050565b6007602052816000526040600020818154811061072457600080fd5b90600052602060002001600091509150505481565b60005481565b6009602052816000526040600020818154811061075b57600080fd5b90600052602060002001600091509150505481565b6008602052816000526040600020818154811061078c57600080fd5b90600052602060002001600091509150505481565b6000805b600960008473ffffffffffffffffffffffffffffffffffffffff1673ffffffffffffffffffffffffffffffffffffffff16815260200190815260200160002080549050821015610ce0576000600960008573ffffffffffffffffffffffffffffffffffffffff1673ffffffffffffffffffffffffffffffffffffffff1681526020019081526020016000208381548110610842576108416115c5565b5b9060005260206000200154905060006006600083815260200190815260200160002060030160009054906101000a900460ff16905080610cca57600060066000848152602001908152602001600020600201549050600181036109705760008673ffffffffffffffffffffffffffffffffffffffff166002662386f26fc100006001546108cf919061154f565b6108d99190611623565b6040516108e590611685565b60006040518083038185875af1925050503d8060008114610922576040519150601f19603f3d011682016040523d82523d6000602084013e610927565b606091505b505090508061096b576040517f08c379a0000000000000000000000000000000000000000000000000000000008152600401610962906116f7565b60405180910390fd5b809450505b60028103610a3d5760008673ffffffffffffffffffffffffffffffffffffffff16662386f26fc100006001546109a6919061154f565b6040516109b290611685565b60006040518083038185875af1925050503d80600081146109ef576040519150601f19603f3d011682016040523d82523d6000602084013e6109f4565b606091505b5050905080610a38576040517f08c379a0000000000000000000000000000000000000000000000000000000008152600401610a2f906116f7565b60405180910390fd5b809450505b60038103610b165760008673ffffffffffffffffffffffffffffffffffffffff16662386f26fc100006002600154610a75919061154f565b610a7f919061154f565b604051610a8b90611685565b60006040518083038185875af1925050503d8060008114610ac8576040519150601f19603f3d011682016040523d82523d6000602084013e610acd565b606091505b5050905080610b11576040517f08c379a0000000000000000000000000000000000000000000000000000000008152600401610b08906116f7565b60405180910390fd5b809450505b60048103610bef5760008673ffffffffffffffffffffffffffffffffffffffff16662386f26fc100006005600154610b4e919061154f565b610b58919061154f565b604051610b6490611685565b60006040518083038185875af1925050503d8060008114610ba1576040519150601f19603f3d011682016040523d82523d6000602084013e610ba6565b606091505b5050905080610bea576040517f08c379a0000000000000000000000000000000000000000000000000000000008152600401610be1906116f7565b60405180910390fd5b809450505b60058103610cc85760008673ffffffffffffffffffffffffffffffffffffffff16662386f26fc10000600a600154610c27919061154f565b610c31919061154f565b604051610c3d90611685565b60006040518083038185875af1925050503d8060008114610c7a576040519150601f19603f3d011682016040523d82523d6000602084013e610c7f565b606091505b5050905080610cc3576040517f08c379a0000000000000000000000000000000000000000000000000000000008152600401610cba906116f7565b60405180910390fd5b809450505b505b600184610cd79190611591565b935050506107a5565b8015610dd95760005b600960008573ffffffffffffffffffffffffffffffffffffffff1673ffffffffffffffffffffffffffffffffffffffff16815260200190815260200160002080549050811015610dd7576000600960008673ffffffffffffffffffffffffffffffffffffffff1673ffffffffffffffffffffffffffffffffffffffff1681526020019081526020016000208281548110610d8657610d856115c5565b5b9060005260206000200154905060016006600083815260200190815260200160002060030160006101000a81548160ff021916908315150217905550600182610dcf9190611591565b915050610ce9565b505b505050565b60015481565b600080600080600080600160634244604051602001610e04929190611738565b6040516020818303038152906040528051906020012060001c610e279190611764565b610e319190611591565b905060006001606332600143610e479190611795565b4042604051602001610e5b9392919061183c565b6040516020818303038152906040528051906020012060001c610e7e9190611764565b610e889190611591565b9050818103610ead578080610e9c90611879565b91505060648103610eac57600190505b5b6000600160634233604051602001610ec69291906118c1565b6040516020818303038152906040528051906020012060001c610ee99190611764565b610ef39190611591565b905082811480610f0257508181145b15610f2457600281610f149190611591565b905060648210610f2357600291505b5b6000600160633242434433604051602001610f439594939291906118ed565b6040516020818303038152906040528051906020012060001c610f669190611764565b610f709190611591565b905083811480610f7f57508281145b80610f8957508181145b15610fab57600381610f9b9190611591565b905060648110610faa57600390505b5b600060016063324243443342604051602001610fcc9695949392919061194c565b6040516020818303038152906040528051906020012060001c610fef9190611764565b610ff99190611591565b90508481148061100857508381145b8061101257508281145b8061101c57508181145b1561103e5760048161102e9190611591565b90506064811061103d57600490505b5b84848484849950995099509950995050505050509091929394565b828054828255906000526020600020908101928215611095579160200282015b82811115611094578251825591602001919060010190611079565b5b5090506110a291906110c8565b5090565b6040518060a00160405280600590602082028036833780820191505090505090565b5b808211156110e15760008160009055506001016110c9565b5090565b600080fd5b600073ffffffffffffffffffffffffffffffffffffffff82169050919050565b6000611115826110ea565b9050919050565b6111258161110a565b811461113057600080fd5b50565b6000813590506111428161111c565b92915050565b60006020828403121561115e5761115d6110e5565b5b600061116c84828501611133565b91505092915050565b6000819050919050565b61118881611175565b82525050565b60006020820190506111a3600083018461117f565b92915050565b6111b281611175565b81146111bd57600080fd5b50565b6000813590506111cf816111a9565b92915050565b60008060008060008060c087890312156111f2576111f16110e5565b5b600061120089828a01611133565b965050602061121189828a016111c0565b955050604061122289828a016111c0565b945050606061123389828a016111c0565b935050608061124489828a016111c0565b92505060a061125589828a016111c0565b9150509295509295509295565b600060208284031215611278576112776110e5565b5b6000611286848285016111c0565b91505092915050565b6112988161110a565b82525050565b60008115159050919050565b6112b38161129e565b82525050565b60006080820190506112ce600083018761117f565b6112db602083018661128f565b6112e8604083018561117f565b6112f560608301846112aa565b95945050505050565b600080600080600060a0868803121561131a576113196110e5565b5b6000611328888289016111c0565b9550506020611339888289016111c0565b945050604061134a888289016111c0565b935050606061135b888289016111c0565b925050608061136c888289016111c0565b9150509295509295909350565b600060059050919050565b600081905092915050565b6000819050919050565b6113a281611175565b82525050565b60006113b48383611399565b60208301905092915050565b6000602082019050919050565b6113d681611379565b6113e08184611384565b92506113eb8261138f565b8060005b8381101561141c57815161140387826113a8565b965061140e836113c0565b9250506001810190506113ef565b505050505050565b600060c082019050611439600083018561117f565b61144660208301846113cd565b9392505050565b60008060408385031215611464576114636110e5565b5b6000611472858286016111c0565b9250506020611483858286016111c0565b9150509250929050565b600080604083850312156114a4576114a36110e5565b5b60006114b285828601611133565b92505060206114c3858286016111c0565b9150509250929050565b600060a0820190506114e2600083018861117f565b6114ef602083018761117f565b6114fc604083018661117f565b611509606083018561117f565b611516608083018461117f565b9695505050505050565b7f4e487b7100000000000000000000000000000000000000000000000000000000600052601160045260246000fd5b600061155a82611175565b915061156583611175565b925082820261157381611175565b9150828204841483151761158a57611589611520565b5b5092915050565b600061159c82611175565b91506115a783611175565b92508282019050808211156115bf576115be611520565b5b92915050565b7f4e487b7100000000000000000000000000000000000000000000000000000000600052603260045260246000fd5b7f4e487b7100000000000000000000000000000000000000000000000000000000600052601260045260246000fd5b600061162e82611175565b915061163983611175565b925082611649576116486115f4565b5b828204905092915050565b600081905092915050565b50565b600061166f600083611654565b915061167a8261165f565b600082019050919050565b600061169082611662565b9150819050919050565b600082825260208201905092915050565b7f6661696c656420746f2073656e64000000000000000000000000000000000000600082015250565b60006116e1600e8361169a565b91506116ec826116ab565b602082019050919050565b60006020820190508181036000830152611710816116d4565b9050919050565b6000819050919050565b61173261172d82611175565b611717565b82525050565b60006117448285611721565b6020820191506117548284611721565b6020820191508190509392505050565b600061176f82611175565b915061177a83611175565b92508261178a576117896115f4565b5b828206905092915050565b60006117a082611175565b91506117ab83611175565b92508282039050818111156117c3576117c2611520565b5b92915050565b60008160601b9050919050565b60006117e1826117c9565b9050919050565b60006117f3826117d6565b9050919050565b61180b6118068261110a565b6117e8565b82525050565b6000819050919050565b6000819050919050565b61183661183182611811565b61181b565b82525050565b600061184882866117fa565b6014820191506118588285611825565b6020820191506118688284611721565b602082019150819050949350505050565b600061188482611175565b91507fffffffffffffffffffffffffffffffffffffffffffffffffffffffffffffffff82036118b6576118b5611520565b5b600182019050919050565b60006118cd8285611721565b6020820191506118dd82846117fa565b6014820191508190509392505050565b60006118f982886117fa565b6014820191506119098287611721565b6020820191506119198286611721565b6020820191506119298285611721565b60208201915061193982846117fa565b6014820191508190509695505050505050565b600061195882896117fa565b6014820191506119688288611721565b6020820191506119788287611721565b6020820191506119888286611721565b60208201915061199882856117fa565b6014820191506119a88284611721565b60208201915081905097965050505050505056fea2646970667358221220f3ba80241113aa621deb60dab4ce21049b3f26452f9229eef202ea33ac13a2e464736f6c63430008130033","opcodes":"PUSH1 0x80 PUSH1 0x40 MSTORE CALLVALUE DUP1 ISZERO PUSH2 0x10 JUMPI PUSH1 0x0 DUP1 REVERT JUMPDEST POP PUSH1 0x0 DUP1 DUP2 SWAP1 SSTORE POP PUSH1 0x1 DUP1 DUP2 SWAP1 SSTORE POP PUSH2 0x19F2 DUP1 PUSH2 0x2E PUSH1 0x0 CODECOPY PUSH1 0x0 RETURN INVALID PUSH1 0x80 PUSH1 0x40 MSTORE PUSH1 0x4 CALLDATASIZE LT PUSH2 0x9C JUMPI PUSH1 0x0 CALLDATALOAD PUSH1 0xE0 SHR DUP1 PUSH4 0x5B4A9B51 GT PUSH2 0x64 JUMPI DUP1 PUSH4 0x5B4A9B51 EQ PUSH2 0x1B5 JUMPI DUP1 PUSH4 0x7190FD65 EQ PUSH2 0x1E0 JUMPI DUP1 PUSH4 0x74CE9722 EQ PUSH2 0x21D JUMPI DUP1 PUSH4 0xC00007B0 EQ PUSH2 0x25A JUMPI DUP1 PUSH4 0xCFD8A175 EQ PUSH2 0x283 JUMPI DUP1 PUSH4 0xDBDFF2C1 EQ PUSH2 0x2AE JUMPI PUSH2 0x9C JUMP JUMPDEST DUP1 PUSH4 0xDDCFE8E EQ PUSH2 0xA1 JUMPI DUP1 PUSH4 0x2B6E2E84 EQ PUSH2 0xDE JUMPI DUP1 PUSH4 0x2D629ED4 EQ PUSH2 0xFA JUMPI DUP1 PUSH4 0x3C1C5597 EQ PUSH2 0x13A JUMPI DUP1 PUSH4 0x3E96D09A EQ PUSH2 0x178 JUMPI JUMPDEST PUSH1 0x0 DUP1 REVERT JUMPDEST CALLVALUE DUP1 ISZERO PUSH2 0xAD JUMPI PUSH1 0x0 DUP1 REVERT JUMPDEST POP PUSH2 0xC8 PUSH1 0x4 DUP1 CALLDATASIZE SUB DUP2 ADD SWAP1 PUSH2 0xC3 SWAP2 SWAP1 PUSH2 0x1148 JUMP JUMPDEST PUSH2 0x2DD JUMP JUMPDEST PUSH1 0x40 MLOAD PUSH2 0xD5 SWAP2 SWAP1 PUSH2 0x118E JUMP JUMPDEST PUSH1 0x40 MLOAD DUP1 SWAP2 SUB SWAP1 RETURN JUMPDEST PUSH2 0xF8 PUSH1 0x4 DUP1 CALLDATASIZE SUB DUP2 ADD SWAP1 PUSH2 0xF3 SWAP2 SWAP1 PUSH2 0x11D5 JUMP JUMPDEST PUSH2 0x329 JUMP JUMPDEST STOP JUMPDEST CALLVALUE DUP1 ISZERO PUSH2 0x106 JUMPI PUSH1 0x0 DUP1 REVERT JUMPDEST POP PUSH2 0x121 PUSH1 0x4 DUP1 CALLDATASIZE SUB DUP2 ADD SWAP1 PUSH2 0x11C SWAP2 SWAP1 PUSH2 0x1262 JUMP JUMPDEST PUSH2 0x537 JUMP JUMPDEST PUSH1 0x40 MLOAD PUSH2 0x131 SWAP5 SWAP4 SWAP3 SWAP2 SWAP1 PUSH2 0x12B9 JUMP JUMPDEST PUSH1 0x40 MLOAD DUP1 SWAP2 SUB SWAP1 RETURN JUMPDEST CALLVALUE DUP1 ISZERO PUSH2 0x146 JUMPI PUSH1 0x0 DUP1 REVERT JUMPDEST POP PUSH2 0x161 PUSH1 0x4 DUP1 CALLDATASIZE SUB DUP2 ADD SWAP1 PUSH2 0x15C SWAP2 SWAP1 PUSH2 0x12FE JUMP JUMPDEST PUSH2 0x594 JUMP JUMPDEST PUSH1 0x40 MLOAD PUSH2 0x16F SWAP3 SWAP2 SWAP1 PUSH2 0x1424 JUMP JUMPDEST PUSH1 0x40 MLOAD DUP1 SWAP2 SUB SWAP1 RETURN JUMPDEST CALLVALUE DUP1 ISZERO PUSH2 0x184 JUMPI PUSH1 0x0 DUP1 REVERT JUMPDEST POP PUSH2 0x19F PUSH1 0x4 DUP1 CALLDATASIZE SUB DUP2 ADD SWAP1 PUSH2 0x19A SWAP2 SWAP1 PUSH2 0x144D JUMP JUMPDEST PUSH2 0x708 JUMP JUMPDEST PUSH1 0x40 MLOAD PUSH2 0x1AC SWAP2 SWAP1 PUSH2 0x118E JUMP JUMPDEST PUSH1 0x40 MLOAD DUP1 SWAP2 SUB SWAP1 RETURN JUMPDEST CALLVALUE DUP1 ISZERO PUSH2 0x1C1 JUMPI PUSH1 0x0 DUP1 REVERT JUMPDEST POP PUSH2 0x1CA PUSH2 0x739 JUMP JUMPDEST PUSH1 0x40 MLOAD PUSH2 0x1D7 SWAP2 SWAP1 PUSH2 0x118E JUMP JUMPDEST PUSH1 0x40 MLOAD DUP1 SWAP2 SUB SWAP1 RETURN JUMPDEST CALLVALUE DUP1 ISZERO PUSH2 0x1EC JUMPI PUSH1 0x0 DUP1 REVERT JUMPDEST POP PUSH2 0x207 PUSH1 0x4 DUP1 CALLDATASIZE SUB DUP2 ADD SWAP1 PUSH2 0x202 SWAP2 SWAP1 PUSH2 0x148D JUMP JUMPDEST PUSH2 0x73F JUMP JUMPDEST PUSH1 0x40 MLOAD PUSH2 0x214 SWAP2 SWAP1 PUSH2 0x118E JUMP JUMPDEST PUSH1 0x40 MLOAD DUP1 SWAP2 SUB SWAP1 RETURN JUMPDEST CALLVALUE DUP1 ISZERO PUSH2 0x229 JUMPI PUSH1 0x0 DUP1 REVERT JUMPDEST POP PUSH2 0x244 PUSH1 0x4 DUP1 CALLDATASIZE SUB DUP2 ADD SWAP1 PUSH2 0x23F SWAP2 SWAP1 PUSH2 0x144D JUMP JUMPDEST PUSH2 0x770 JUMP JUMPDEST PUSH1 0x40 MLOAD PUSH2 0x251 SWAP2 SWAP1 PUSH2 0x118E JUMP JUMPDEST PUSH1 0x40 MLOAD DUP1 SWAP2 SUB SWAP1 RETURN JUMPDEST CALLVALUE DUP1 ISZERO PUSH2 0x266 JUMPI PUSH1 0x0 DUP1 REVERT JUMPDEST POP PUSH2 0x281 PUSH1 0x4 DUP1 CALLDATASIZE SUB DUP2 ADD SWAP1 PUSH2 0x27C SWAP2 SWAP1 PUSH2 0x1148 JUMP JUMPDEST PUSH2 0x7A1 JUMP JUMPDEST STOP JUMPDEST CALLVALUE DUP1 ISZERO PUSH2 0x28F JUMPI PUSH1 0x0 DUP1 REVERT JUMPDEST POP PUSH2 0x298 PUSH2 0xDDE JUMP JUMPDEST PUSH1 0x40 MLOAD PUSH2 0x2A5 SWAP2 SWAP1 PUSH2 0x118E JUMP JUMPDEST PUSH1 0x40 MLOAD DUP1 SWAP2 SUB SWAP1 RETURN JUMPDEST CALLVALUE DUP1 ISZERO PUSH2 0x2BA JUMPI PUSH1 0x0 DUP1 REVERT JUMPDEST POP PUSH2 0x2C3 PUSH2 0xDE4 JUMP JUMPDEST PUSH1 0x40 MLOAD PUSH2 0x2D4 SWAP6 SWAP5 SWAP4 SWAP3 SWAP2 SWAP1 PUSH2 0x14CD JUMP JUMPDEST PUSH1 0x40 MLOAD DUP1 SWAP2 SUB SWAP1 RETURN JUMPDEST PUSH1 0x0 PUSH1 0x9 PUSH1 0x0 DUP4 PUSH20 0xFFFFFFFFFFFFFFFFFFFFFFFFFFFFFFFFFFFFFFFF AND PUSH20 0xFFFFFFFFFFFFFFFFFFFFFFFFFFFFFFFFFFFFFFFF AND DUP2 MSTORE PUSH1 0x20 ADD SWAP1 DUP2 MSTORE PUSH1 0x20 ADD PUSH1 0x0 KECCAK256 DUP1 SLOAD SWAP1 POP SWAP1 POP SWAP2 SWAP1 POP JUMP JUMPDEST PUSH7 0x2386F26FC10000 PUSH1 0x1 SLOAD PUSH2 0x33E SWAP2 SWAP1 PUSH2 0x154F JUMP JUMPDEST DUP7 PUSH20 0xFFFFFFFFFFFFFFFFFFFFFFFFFFFFFFFFFFFFFFFF AND BALANCE LT PUSH2 0x52F JUMPI PUSH1 0x0 DUP1 PUSH2 0x36B DUP8 DUP8 DUP8 DUP8 DUP8 PUSH2 0x594 JUMP JUMPDEST SWAP2 POP SWAP2 POP PUSH1 0x40 MLOAD DUP1 PUSH1 0x80 ADD PUSH1 0x40 MSTORE DUP1 PUSH1 0x0 SLOAD DUP2 MSTORE PUSH1 0x20 ADD DUP10 PUSH20 0xFFFFFFFFFFFFFFFFFFFFFFFFFFFFFFFFFFFFFFFF AND DUP2 MSTORE PUSH1 0x20 ADD DUP4 DUP2 MSTORE PUSH1 0x20 ADD PUSH1 0x0 ISZERO ISZERO DUP2 MSTORE POP PUSH1 0x6 PUSH1 0x0 DUP1 SLOAD DUP2 MSTORE PUSH1 0x20 ADD SWAP1 DUP2 MSTORE PUSH1 0x20 ADD PUSH1 0x0 KECCAK256 PUSH1 0x0 DUP3 ADD MLOAD DUP2 PUSH1 0x0 ADD SSTORE PUSH1 0x20 DUP3 ADD MLOAD DUP2 PUSH1 0x1 ADD PUSH1 0x0 PUSH2 0x100 EXP DUP2 SLOAD DUP2 PUSH20 0xFFFFFFFFFFFFFFFFFFFFFFFFFFFFFFFFFFFFFFFF MUL NOT AND SWAP1 DUP4 PUSH20 0xFFFFFFFFFFFFFFFFFFFFFFFFFFFFFFFFFFFFFFFF AND MUL OR SWAP1 SSTORE POP PUSH1 0x40 DUP3 ADD MLOAD DUP2 PUSH1 0x2 ADD SSTORE PUSH1 0x60 DUP3 ADD MLOAD DUP2 PUSH1 0x3 ADD PUSH1 0x0 PUSH2 0x100 EXP DUP2 SLOAD DUP2 PUSH1 0xFF MUL NOT AND SWAP1 DUP4 ISZERO ISZERO MUL OR SWAP1 SSTORE POP SWAP1 POP POP PUSH1 0x40 MLOAD DUP1 PUSH1 0xA0 ADD PUSH1 0x40 MSTORE DUP1 DUP9 DUP2 MSTORE PUSH1 0x20 ADD DUP8 DUP2 MSTORE PUSH1 0x20 ADD DUP7 DUP2 MSTORE PUSH1 0x20 ADD DUP6 DUP2 MSTORE PUSH1 0x20 ADD DUP5 DUP2 MSTORE POP PUSH1 0x8 PUSH1 0x0 DUP1 SLOAD DUP2 MSTORE PUSH1 0x20 ADD SWAP1 DUP2 MSTORE PUSH1 0x20 ADD PUSH1 0x0 KECCAK256 SWAP1 PUSH1 0x5 PUSH2 0x486 SWAP3 SWAP2 SWAP1 PUSH2 0x1059 JUMP JUMPDEST POP DUP1 PUSH1 0x7 PUSH1 0x0 DUP1 SLOAD DUP2 MSTORE PUSH1 0x20 ADD SWAP1 DUP2 MSTORE PUSH1 0x20 ADD PUSH1 0x0 KECCAK256 SWAP1 PUSH1 0x5 PUSH2 0x4AA SWAP3 SWAP2 SWAP1 PUSH2 0x1059 JUMP JUMPDEST POP PUSH1 0x9 PUSH1 0x0 DUP10 PUSH20 0xFFFFFFFFFFFFFFFFFFFFFFFFFFFFFFFFFFFFFFFF AND PUSH20 0xFFFFFFFFFFFFFFFFFFFFFFFFFFFFFFFFFFFFFFFF AND DUP2 MSTORE PUSH1 0x20 ADD SWAP1 DUP2 MSTORE PUSH1 0x20 ADD PUSH1 0x0 KECCAK256 PUSH1 0x0 SLOAD SWAP1 DUP1 PUSH1 0x1 DUP2 SLOAD ADD DUP1 DUP3 SSTORE DUP1 SWAP2 POP POP PUSH1 0x1 SWAP1 SUB SWAP1 PUSH1 0x0 MSTORE PUSH1 0x20 PUSH1 0x0 KECCAK256 ADD PUSH1 0x0 SWAP1 SWAP2 SWAP1 SWAP2 SWAP1 SWAP2 POP SSTORE PUSH1 0x1 PUSH1 0x0 DUP1 DUP3 DUP3 SLOAD PUSH2 0x525 SWAP2 SWAP1 PUSH2 0x1591 JUMP JUMPDEST SWAP3 POP POP DUP2 SWAP1 SSTORE POP POP POP JUMPDEST POP POP POP POP POP POP JUMP JUMPDEST PUSH1 0x6 PUSH1 0x20 MSTORE DUP1 PUSH1 0x0 MSTORE PUSH1 0x40 PUSH1 0x0 KECCAK256 PUSH1 0x0 SWAP2 POP SWAP1 POP DUP1 PUSH1 0x0 ADD SLOAD SWAP1 DUP1 PUSH1 0x1 ADD PUSH1 0x0 SWAP1 SLOAD SWAP1 PUSH2 0x100 EXP SWAP1 DIV PUSH20 0xFFFFFFFFFFFFFFFFFFFFFFFFFFFFFFFFFFFFFFFF AND SWAP1 DUP1 PUSH1 0x2 ADD SLOAD SWAP1 DUP1 PUSH1 0x3 ADD PUSH1 0x0 SWAP1 SLOAD SWAP1 PUSH2 0x100 EXP SWAP1 DIV PUSH1 0xFF AND SWAP1 POP DUP5 JUMP JUMPDEST PUSH1 0x0 PUSH2 0x59E PUSH2 0x10A6 JUMP JUMPDEST PUSH1 0x0 DUP1 DUP1 PUSH1 0x0 DUP1 PUSH1 0x0 PUSH2 0x5AF PUSH2 0xDE4 JUMP JUMPDEST SWAP5 POP SWAP5 POP SWAP5 POP SWAP5 POP SWAP5 POP PUSH2 0x5C1 PUSH2 0x10A6 JUMP JUMPDEST PUSH1 0x40 MLOAD DUP1 PUSH1 0xA0 ADD PUSH1 0x40 MSTORE DUP1 DUP8 DUP2 MSTORE PUSH1 0x20 ADD DUP7 DUP2 MSTORE PUSH1 0x20 ADD DUP6 DUP2 MSTORE PUSH1 0x20 ADD DUP5 DUP2 MSTORE PUSH1 0x20 ADD DUP4 DUP2 MSTORE POP SWAP1 POP PUSH1 0x0 JUMPDEST PUSH1 0x5 DUP2 LT ISZERO PUSH2 0x6F0 JUMPI DUP15 DUP3 DUP3 PUSH1 0x5 DUP2 LT PUSH2 0x60A JUMPI PUSH2 0x609 PUSH2 0x15C5 JUMP JUMPDEST JUMPDEST PUSH1 0x20 MUL ADD MLOAD SUB PUSH2 0x624 JUMPI PUSH1 0x1 DUP9 PUSH2 0x621 SWAP2 SWAP1 PUSH2 0x1591 JUMP JUMPDEST SWAP8 POP JUMPDEST DUP14 DUP3 DUP3 PUSH1 0x5 DUP2 LT PUSH2 0x638 JUMPI PUSH2 0x637 PUSH2 0x15C5 JUMP JUMPDEST JUMPDEST PUSH1 0x20 MUL ADD MLOAD SUB PUSH2 0x652 JUMPI PUSH1 0x1 DUP9 PUSH2 0x64F SWAP2 SWAP1 PUSH2 0x1591 JUMP JUMPDEST SWAP8 POP JUMPDEST DUP13 DUP3 DUP3 PUSH1 0x5 DUP2 LT PUSH2 0x666 JUMPI PUSH2 0x665 PUSH2 0x15C5 JUMP JUMPDEST JUMPDEST PUSH1 0x20 MUL ADD MLOAD SUB PUSH2 0x680 JUMPI PUSH1 0x1 DUP9 PUSH2 0x67D SWAP2 SWAP1 PUSH2 0x1591 JUMP JUMPDEST SWAP8 POP JUMPDEST DUP12 DUP3 DUP3 PUSH1 0x5 DUP2 LT PUSH2 0x694 JUMPI PUSH2 0x693 PUSH2 0x15C5 JUMP JUMPDEST JUMPDEST PUSH1 0x20 MUL ADD MLOAD SUB PUSH2 0x6AE JUMPI PUSH1 0x1 DUP9 PUSH2 0x6AB SWAP2 SWAP1 PUSH2 0x1591 JUMP JUMPDEST SWAP8 POP JUMPDEST DUP11 DUP3 DUP3 PUSH1 0x5 DUP2 LT PUSH2 0x6C2 JUMPI PUSH2 0x6C1 PUSH2 0x15C5 JUMP JUMPDEST JUMPDEST PUSH1 0x20 MUL ADD MLOAD SUB PUSH2 0x6DC JUMPI PUSH1 0x1 DUP9 PUSH2 0x6D9 SWAP2 SWAP1 PUSH2 0x1591 JUMP JUMPDEST SWAP8 POP JUMPDEST PUSH1 0x1 DUP2 PUSH2 0x6E9 SWAP2 SWAP1 PUSH2 0x1591 JUMP JUMPDEST SWAP1 POP PUSH2 0x5ED JUMP JUMPDEST DUP8 DUP3 SWAP10 POP SWAP10 POP POP POP POP POP POP POP POP POP SWAP6 POP SWAP6 SWAP4 POP POP POP POP JUMP JUMPDEST PUSH1 0x7 PUSH1 0x20 MSTORE DUP2 PUSH1 0x0 MSTORE PUSH1 0x40 PUSH1 0x0 KECCAK256 DUP2 DUP2 SLOAD DUP2 LT PUSH2 0x724 JUMPI PUSH1 0x0 DUP1 REVERT JUMPDEST SWAP1 PUSH1 0x0 MSTORE PUSH1 0x20 PUSH1 0x0 KECCAK256 ADD PUSH1 0x0 SWAP2 POP SWAP2 POP POP SLOAD DUP2 JUMP JUMPDEST PUSH1 0x0 SLOAD DUP2 JUMP JUMPDEST PUSH1 0x9 PUSH1 0x20 MSTORE DUP2 PUSH1 0x0 MSTORE PUSH1 0x40 PUSH1 0x0 KECCAK256 DUP2 DUP2 SLOAD DUP2 LT PUSH2 0x75B JUMPI PUSH1 0x0 DUP1 REVERT JUMPDEST SWAP1 PUSH1 0x0 MSTORE PUSH1 0x20 PUSH1 0x0 KECCAK256 ADD PUSH1 0x0 SWAP2 POP SWAP2 POP POP SLOAD DUP2 JUMP JUMPDEST PUSH1 0x8 PUSH1 0x20 MSTORE DUP2 PUSH1 0x0 MSTORE PUSH1 0x40 PUSH1 0x0 KECCAK256 DUP2 DUP2 SLOAD DUP2 LT PUSH2 0x78C JUMPI PUSH1 0x0 DUP1 REVERT JUMPDEST SWAP1 PUSH1 0x0 MSTORE PUSH1 0x20 PUSH1 0x0 KECCAK256 ADD PUSH1 0x0 SWAP2 POP SWAP2 POP POP SLOAD DUP2 JUMP JUMPDEST PUSH1 0x0 DUP1 JUMPDEST PUSH1 0x9 PUSH1 0x0 DUP5 PUSH20 0xFFFFFFFFFFFFFFFFFFFFFFFFFFFFFFFFFFFFFFFF AND PUSH20 0xFFFFFFFFFFFFFFFFFFFFFFFFFFFFFFFFFFFFFFFF AND DUP2 MSTORE PUSH1 0x20 ADD SWAP1 DUP2 MSTORE PUSH1 0x20 ADD PUSH1 0x0 KECCAK256 DUP1 SLOAD SWAP1 POP DUP3 LT ISZERO PUSH2 0xCE0 JUMPI PUSH1 0x0 PUSH1 0x9 PUSH1 0x0 DUP6 PUSH20 0xFFFFFFFFFFFFFFFFFFFFFFFFFFFFFFFFFFFFFFFF AND PUSH20 0xFFFFFFFFFFFFFFFFFFFFFFFFFFFFFFFFFFFFFFFF AND DUP2 MSTORE PUSH1 0x20 ADD SWAP1 DUP2 MSTORE PUSH1 0x20 ADD PUSH1 0x0 KECCAK256 DUP4 DUP2 SLOAD DUP2 LT PUSH2 0x842 JUMPI PUSH2 0x841 PUSH2 0x15C5 JUMP JUMPDEST JUMPDEST SWAP1 PUSH1 0x0 MSTORE PUSH1 0x20 PUSH1 0x0 KECCAK256 ADD SLOAD SWAP1 POP PUSH1 0x0 PUSH1 0x6 PUSH1 0x0 DUP4 DUP2 MSTORE PUSH1 0x20 ADD SWAP1 DUP2 MSTORE PUSH1 0x20 ADD PUSH1 0x0 KECCAK256 PUSH1 0x3 ADD PUSH1 0x0 SWAP1 SLOAD SWAP1 PUSH2 0x100 EXP SWAP1 DIV PUSH1 0xFF AND SWAP1 POP DUP1 PUSH2 0xCCA JUMPI PUSH1 0x0 PUSH1 0x6 PUSH1 0x0 DUP5 DUP2 MSTORE PUSH1 0x20 ADD SWAP1 DUP2 MSTORE PUSH1 0x20 ADD PUSH1 0x0 KECCAK256 PUSH1 0x2 ADD SLOAD SWAP1 POP PUSH1 0x1 DUP2 SUB PUSH2 0x970 JUMPI PUSH1 0x0 DUP7 PUSH20 0xFFFFFFFFFFFFFFFFFFFFFFFFFFFFFFFFFFFFFFFF AND PUSH1 0x2 PUSH7 0x2386F26FC10000 PUSH1 0x1 SLOAD PUSH2 0x8CF SWAP2 SWAP1 PUSH2 0x154F JUMP JUMPDEST PUSH2 0x8D9 SWAP2 SWAP1 PUSH2 0x1623 JUMP JUMPDEST PUSH1 0x40 MLOAD PUSH2 0x8E5 SWAP1 PUSH2 0x1685 JUMP JUMPDEST PUSH1 0x0 PUSH1 0x40 MLOAD DUP1 DUP4 SUB DUP2 DUP6 DUP8 GAS CALL SWAP3 POP POP POP RETURNDATASIZE DUP1 PUSH1 0x0 DUP2 EQ PUSH2 0x922 JUMPI PUSH1 0x40 MLOAD SWAP2 POP PUSH1 0x1F NOT PUSH1 0x3F RETURNDATASIZE ADD AND DUP3 ADD PUSH1 0x40 MSTORE RETURNDATASIZE DUP3 MSTORE RETURNDATASIZE PUSH1 0x0 PUSH1 0x20 DUP5 ADD RETURNDATACOPY PUSH2 0x927 JUMP JUMPDEST PUSH1 0x60 SWAP2 POP JUMPDEST POP POP SWAP1 POP DUP1 PUSH2 0x96B JUMPI PUSH1 0x40 MLOAD PUSH32 0x8C379A000000000000000000000000000000000000000000000000000000000 DUP2 MSTORE PUSH1 0x4 ADD PUSH2 0x962 SWAP1 PUSH2 0x16F7 JUMP JUMPDEST PUSH1 0x40 MLOAD DUP1 SWAP2 SUB SWAP1 REVERT JUMPDEST DUP1 SWAP5 POP POP JUMPDEST PUSH1 0x2 DUP2 SUB PUSH2 0xA3D JUMPI PUSH1 0x0 DUP7 PUSH20 0xFFFFFFFFFFFFFFFFFFFFFFFFFFFFFFFFFFFFFFFF AND PUSH7 0x2386F26FC10000 PUSH1 0x1 SLOAD PUSH2 0x9A6 SWAP2 SWAP1 PUSH2 0x154F JUMP JUMPDEST PUSH1 0x40 MLOAD PUSH2 0x9B2 SWAP1 PUSH2 0x1685 JUMP JUMPDEST PUSH1 0x0 PUSH1 0x40 MLOAD DUP1 DUP4 SUB DUP2 DUP6 DUP8 GAS CALL SWAP3 POP POP POP RETURNDATASIZE DUP1 PUSH1 0x0 DUP2 EQ PUSH2 0x9EF JUMPI PUSH1 0x40 MLOAD SWAP2 POP PUSH1 0x1F NOT PUSH1 0x3F RETURNDATASIZE ADD AND DUP3 ADD PUSH1 0x40 MSTORE RETURNDATASIZE DUP3 MSTORE RETURNDATASIZE PUSH1 0x0 PUSH1 0x20 DUP5 ADD RETURNDATACOPY PUSH2 0x9F4 JUMP JUMPDEST PUSH1 0x60 SWAP2 POP JUMPDEST POP POP SWAP1 POP DUP1 PUSH2 0xA38 JUMPI PUSH1 0x40 MLOAD PUSH32 0x8C379A000000000000000000000000000000000000000000000000000000000 DUP2 MSTORE PUSH1 0x4 ADD PUSH2 0xA2F SWAP1 PUSH2 0x16F7 JUMP JUMPDEST PUSH1 0x40 MLOAD DUP1 SWAP2 SUB SWAP1 REVERT JUMPDEST DUP1 SWAP5 POP POP JUMPDEST PUSH1 0x3 DUP2 SUB PUSH2 0xB16 JUMPI PUSH1 0x0 DUP7 PUSH20 0xFFFFFFFFFFFFFFFFFFFFFFFFFFFFFFFFFFFFFFFF AND PUSH7 0x2386F26FC10000 PUSH1 0x2 PUSH1 0x1 SLOAD PUSH2 0xA75 SWAP2 SWAP1 PUSH2 0x154F JUMP JUMPDEST PUSH2 0xA7F SWAP2 SWAP1 PUSH2 0x154F JUMP JUMPDEST PUSH1 0x40 MLOAD PUSH2 0xA8B SWAP1 PUSH2 0x1685 JUMP JUMPDEST PUSH1 0x0 PUSH1 0x40 MLOAD DUP1 DUP4 SUB DUP2 DUP6 DUP8 GAS CALL SWAP3 POP POP POP RETURNDATASIZE DUP1 PUSH1 0x0 DUP2 EQ PUSH2 0xAC8 JUMPI PUSH1 0x40 MLOAD SWAP2 POP PUSH1 0x1F NOT PUSH1 0x3F RETURNDATASIZE ADD AND DUP3 ADD PUSH1 0x40 MSTORE RETURNDATASIZE DUP3 MSTORE RETURNDATASIZE PUSH1 0x0 PUSH1 0x20 DUP5 ADD RETURNDATACOPY PUSH2 0xACD JUMP JUMPDEST PUSH1 0x60 SWAP2 POP JUMPDEST POP POP SWAP1 POP DUP1 PUSH2 0xB11 JUMPI PUSH1 0x40 MLOAD PUSH32 0x8C379A000000000000000000000000000000000000000000000000000000000 DUP2 MSTORE PUSH1 0x4 ADD PUSH2 0xB08 SWAP1 PUSH2 0x16F7 JUMP JUMPDEST PUSH1 0x40 MLOAD DUP1 SWAP2 SUB SWAP1 REVERT JUMPDEST DUP1 SWAP5 POP POP JUMPDEST PUSH1 0x4 DUP2 SUB PUSH2 0xBEF JUMPI PUSH1 0x0 DUP7 PUSH20 0xFFFFFFFFFFFFFFFFFFFFFFFFFFFFFFFFFFFFFFFF AND PUSH7 0x2386F26FC10000 PUSH1 0x5 PUSH1 0x1 SLOAD PUSH2 0xB4E SWAP2 SWAP1 PUSH2 0x154F JUMP JUMPDEST PUSH2 0xB58 SWAP2 SWAP1 PUSH2 0x154F JUMP JUMPDEST PUSH1 0x40 MLOAD PUSH2 0xB64 SWAP1 PUSH2 0x1685 JUMP JUMPDEST PUSH1 0x0 PUSH1 0x40 MLOAD DUP1 DUP4 SUB DUP2 DUP6 DUP8 GAS CALL SWAP3 POP POP POP RETURNDATASIZE DUP1 PUSH1 0x0 DUP2 EQ PUSH2 0xBA1 JUMPI PUSH1 0x40 MLOAD SWAP2 POP PUSH1 0x1F NOT PUSH1 0x3F RETURNDATASIZE ADD AND DUP3 ADD PUSH1 0x40 MSTORE RETURNDATASIZE DUP3 MSTORE RETURNDATASIZE PUSH1 0x0 PUSH1 0x20 DUP5 ADD RETURNDATACOPY PUSH2 0xBA6 JUMP JUMPDEST PUSH1 0x60 SWAP2 POP JUMPDEST POP POP SWAP1 POP DUP1 PUSH2 0xBEA JUMPI PUSH1 0x40 MLOAD PUSH32 0x8C379A000000000000000000000000000000000000000000000000000000000 DUP2 MSTORE PUSH1 0x4 ADD PUSH2 0xBE1 SWAP1 PUSH2 0x16F7 JUMP JUMPDEST PUSH1 0x40 MLOAD DUP1 SWAP2 SUB SWAP1 REVERT JUMPDEST DUP1 SWAP5 POP POP JUMPDEST PUSH1 0x5 DUP2 SUB PUSH2 0xCC8 JUMPI PUSH1 0x0 DUP7 PUSH20 0xFFFFFFFFFFFFFFFFFFFFFFFFFFFFFFFFFFFFFFFF AND PUSH7 0x2386F26FC10000 PUSH1 0xA PUSH1 0x1 SLOAD PUSH2 0xC27 SWAP2 SWAP1 PUSH2 0x154F JUMP JUMPDEST PUSH2 0xC31 SWAP2 SWAP1 PUSH2 0x154F JUMP JUMPDEST PUSH1 0x40 MLOAD PUSH2 0xC3D SWAP1 PUSH2 0x1685 JUMP JUMPDEST PUSH1 0x0 PUSH1 0x40 MLOAD DUP1 DUP4 SUB DUP2 DUP6 DUP8 GAS CALL SWAP3 POP POP POP RETURNDATASIZE DUP1 PUSH1 0x0 DUP2 EQ PUSH2 0xC7A JUMPI PUSH1 0x40 MLOAD SWAP2 POP PUSH1 0x1F NOT PUSH1 0x3F RETURNDATASIZE ADD AND DUP3 ADD PUSH1 0x40 MSTORE RETURNDATASIZE DUP3 MSTORE RETURNDATASIZE PUSH1 0x0 PUSH1 0x20 DUP5 ADD RETURNDATACOPY PUSH2 0xC7F JUMP JUMPDEST PUSH1 0x60 SWAP2 POP JUMPDEST POP POP SWAP1 POP DUP1 PUSH2 0xCC3 JUMPI PUSH1 0x40 MLOAD PUSH32 0x8C379A000000000000000000000000000000000000000000000000000000000 DUP2 MSTORE PUSH1 0x4 ADD PUSH2 0xCBA SWAP1 PUSH2 0x16F7 JUMP JUMPDEST PUSH1 0x40 MLOAD DUP1 SWAP2 SUB SWAP1 REVERT JUMPDEST DUP1 SWAP5 POP POP JUMPDEST POP JUMPDEST PUSH1 0x1 DUP5 PUSH2 0xCD7 SWAP2 SWAP1 PUSH2 0x1591 JUMP JUMPDEST SWAP4 POP POP POP PUSH2 0x7A5 JUMP JUMPDEST DUP1 ISZERO PUSH2 0xDD9 JUMPI PUSH1 0x0 JUMPDEST PUSH1 0x9 PUSH1 0x0 DUP6 PUSH20 0xFFFFFFFFFFFFFFFFFFFFFFFFFFFFFFFFFFFFFFFF AND PUSH20 0xFFFFFFFFFFFFFFFFFFFFFFFFFFFFFFFFFFFFFFFF AND DUP2 MSTORE PUSH1 0x20 ADD SWAP1 DUP2 MSTORE PUSH1 0x20 ADD PUSH1 0x0 KECCAK256 DUP1 SLOAD SWAP1 POP DUP2 LT ISZERO PUSH2 0xDD7 JUMPI PUSH1 0x0 PUSH1 0x9 PUSH1 0x0 DUP7 PUSH20 0xFFFFFFFFFFFFFFFFFFFFFFFFFFFFFFFFFFFFFFFF AND PUSH20 0xFFFFFFFFFFFFFFFFFFFFFFFFFFFFFFFFFFFFFFFF AND DUP2 MSTORE PUSH1 0x20 ADD SWAP1 DUP2 MSTORE PUSH1 0x20 ADD PUSH1 0x0 KECCAK256 DUP3 DUP2 SLOAD DUP2 LT PUSH2 0xD86 JUMPI PUSH2 0xD85 PUSH2 0x15C5 JUMP JUMPDEST JUMPDEST SWAP1 PUSH1 0x0 MSTORE PUSH1 0x20 PUSH1 0x0 KECCAK256 ADD SLOAD SWAP1 POP PUSH1 0x1 PUSH1 0x6 PUSH1 0x0 DUP4 DUP2 MSTORE PUSH1 0x20 ADD SWAP1 DUP2 MSTORE PUSH1 0x20 ADD PUSH1 0x0 KECCAK256 PUSH1 0x3 ADD PUSH1 0x0 PUSH2 0x100 EXP DUP2 SLOAD DUP2 PUSH1 0xFF MUL NOT AND SWAP1 DUP4 ISZERO ISZERO MUL OR SWAP1 SSTORE POP PUSH1 0x1 DUP3 PUSH2 0xDCF SWAP2 SWAP1 PUSH2 0x1591 JUMP JUMPDEST SWAP2 POP POP PUSH2 0xCE9 JUMP JUMPDEST POP JUMPDEST POP POP POP JUMP JUMPDEST PUSH1 0x1 SLOAD DUP2 JUMP JUMPDEST PUSH1 0x0 DUP1 PUSH1 0x0 DUP1 PUSH1 0x0 DUP1 PUSH1 0x1 PUSH1 0x63 TIMESTAMP PREVRANDAO PUSH1 0x40 MLOAD PUSH1 0x20 ADD PUSH2 0xE04 SWAP3 SWAP2 SWAP1 PUSH2 0x1738 JUMP JUMPDEST PUSH1 0x40 MLOAD PUSH1 0x20 DUP2 DUP4 SUB SUB DUP2 MSTORE SWAP1 PUSH1 0x40 MSTORE DUP1 MLOAD SWAP1 PUSH1 0x20 ADD KECCAK256 PUSH1 0x0 SHR PUSH2 0xE27 SWAP2 SWAP1 PUSH2 0x1764 JUMP JUMPDEST PUSH2 0xE31 SWAP2 SWAP1 PUSH2 0x1591 JUMP JUMPDEST SWAP1 POP PUSH1 0x0 PUSH1 0x1 PUSH1 0x63 ORIGIN PUSH1 0x1 NUMBER PUSH2 0xE47 SWAP2 SWAP1 PUSH2 0x1795 JUMP JUMPDEST BLOCKHASH TIMESTAMP PUSH1 0x40 MLOAD PUSH1 0x20 ADD PUSH2 0xE5B SWAP4 SWAP3 SWAP2 SWAP1 PUSH2 0x183C JUMP JUMPDEST PUSH1 0x40 MLOAD PUSH1 0x20 DUP2 DUP4 SUB SUB DUP2 MSTORE SWAP1 PUSH1 0x40 MSTORE DUP1 MLOAD SWAP1 PUSH1 0x20 ADD KECCAK256 PUSH1 0x0 SHR PUSH2 0xE7E SWAP2 SWAP1 PUSH2 0x1764 JUMP JUMPDEST PUSH2 0xE88 SWAP2 SWAP1 PUSH2 0x1591 JUMP JUMPDEST SWAP1 POP DUP2 DUP2 SUB PUSH2 0xEAD JUMPI DUP1 DUP1 PUSH2 0xE9C SWAP1 PUSH2 0x1879 JUMP JUMPDEST SWAP2 POP POP PUSH1 0x64 DUP2 SUB PUSH2 0xEAC JUMPI PUSH1 0x1 SWAP1 POP JUMPDEST JUMPDEST PUSH1 0x0 PUSH1 0x1 PUSH1 0x63 TIMESTAMP CALLER PUSH1 0x40 MLOAD PUSH1 0x20 ADD PUSH2 0xEC6 SWAP3 SWAP2 SWAP1 PUSH2 0x18C1 JUMP JUMPDEST PUSH1 0x40 MLOAD PUSH1 0x20 DUP2 DUP4 SUB SUB DUP2 MSTORE SWAP1 PUSH1 0x40 MSTORE DUP1 MLOAD SWAP1 PUSH1 0x20 ADD KECCAK256 PUSH1 0x0 SHR PUSH2 0xEE9 SWAP2 SWAP1 PUSH2 0x1764 JUMP JUMPDEST PUSH2 0xEF3 SWAP2 SWAP1 PUSH2 0x1591 JUMP JUMPDEST SWAP1 POP DUP3 DUP2 EQ DUP1 PUSH2 0xF02 JUMPI POP DUP2 DUP2 EQ JUMPDEST ISZERO PUSH2 0xF24 JUMPI PUSH1 0x2 DUP2 PUSH2 0xF14 SWAP2 SWAP1 PUSH2 0x1591 JUMP JUMPDEST SWAP1 POP PUSH1 0x64 DUP3 LT PUSH2 0xF23 JUMPI PUSH1 0x2 SWAP2 POP JUMPDEST JUMPDEST PUSH1 0x0 PUSH1 0x1 PUSH1 0x63 ORIGIN TIMESTAMP NUMBER PREVRANDAO CALLER PUSH1 0x40 MLOAD PUSH1 0x20 ADD PUSH2 0xF43 SWAP6 SWAP5 SWAP4 SWAP3 SWAP2 SWAP1 PUSH2 0x18ED JUMP JUMPDEST PUSH1 0x40 MLOAD PUSH1 0x20 DUP2 DUP4 SUB SUB DUP2 MSTORE SWAP1 PUSH1 0x40 MSTORE DUP1 MLOAD SWAP1 PUSH1 0x20 ADD KECCAK256 PUSH1 0x0 SHR PUSH2 0xF66 SWAP2 SWAP1 PUSH2 0x1764 JUMP JUMPDEST PUSH2 0xF70 SWAP2 SWAP1 PUSH2 0x1591 JUMP JUMPDEST SWAP1 POP DUP4 DUP2 EQ DUP1 PUSH2 0xF7F JUMPI POP DUP3 DUP2 EQ JUMPDEST DUP1 PUSH2 0xF89 JUMPI POP DUP2 DUP2 EQ JUMPDEST ISZERO PUSH2 0xFAB JUMPI PUSH1 0x3 DUP2 PUSH2 0xF9B SWAP2 SWAP1 PUSH2 0x1591 JUMP JUMPDEST SWAP1 POP PUSH1 0x64 DUP2 LT PUSH2 0xFAA JUMPI PUSH1 0x3 SWAP1 POP JUMPDEST JUMPDEST PUSH1 0x0 PUSH1 0x1 PUSH1 0x63 ORIGIN TIMESTAMP NUMBER PREVRANDAO CALLER TIMESTAMP PUSH1 0x40 MLOAD PUSH1 0x20 ADD PUSH2 0xFCC SWAP7 SWAP6 SWAP5 SWAP4 SWAP3 SWAP2 SWAP1 PUSH2 0x194C JUMP JUMPDEST PUSH1 0x40 MLOAD PUSH1 0x20 DUP2 DUP4 SUB SUB DUP2 MSTORE SWAP1 PUSH1 0x40 MSTORE DUP1 MLOAD SWAP1 PUSH1 0x20 ADD KECCAK256 PUSH1 0x0 SHR PUSH2 0xFEF SWAP2 SWAP1 PUSH2 0x1764 JUMP JUMPDEST PUSH2 0xFF9 SWAP2 SWAP1 PUSH2 0x1591 JUMP JUMPDEST SWAP1 POP DUP5 DUP2 EQ DUP1 PUSH2 0x1008 JUMPI POP DUP4 DUP2 EQ JUMPDEST DUP1 PUSH2 0x1012 JUMPI POP DUP3 DUP2 EQ JUMPDEST DUP1 PUSH2 0x101C JUMPI POP DUP2 DUP2 EQ JUMPDEST ISZERO PUSH2 0x103E JUMPI PUSH1 0x4 DUP2 PUSH2 0x102E SWAP2 SWAP1 PUSH2 0x1591 JUMP JUMPDEST SWAP1 POP PUSH1 0x64 DUP2 LT PUSH2 0x103D JUMPI PUSH1 0x4 SWAP1 POP JUMPDEST JUMPDEST DUP5 DUP5 DUP5 DUP5 DUP5 SWAP10 POP SWAP10 POP SWAP10 POP SWAP10 POP SWAP10 POP POP POP POP POP POP SWAP1 SWAP2 SWAP3 SWAP4 SWAP5 JUMP JUMPDEST DUP3 DUP1 SLOAD DUP3 DUP3 SSTORE SWAP1 PUSH1 0x0 MSTORE PUSH1 0x20 PUSH1 0x0 KECCAK256 SWAP1 DUP2 ADD SWAP3 DUP3 ISZERO PUSH2 0x1095 JUMPI SWAP2 PUSH1 0x20 MUL DUP3 ADD JUMPDEST DUP3 DUP2 GT ISZERO PUSH2 0x1094 JUMPI DUP3 MLOAD DUP3 SSTORE SWAP2 PUSH1 0x20 ADD SWAP2 SWAP1 PUSH1 0x1 ADD SWAP1 PUSH2 0x1079 JUMP JUMPDEST JUMPDEST POP SWAP1 POP PUSH2 0x10A2 SWAP2 SWAP1 PUSH2 0x10C8 JUMP JUMPDEST POP SWAP1 JUMP JUMPDEST PUSH1 0x40 MLOAD DUP1 PUSH1 0xA0 ADD PUSH1 0x40 MSTORE DUP1 PUSH1 0x5 SWAP1 PUSH1 0x20 DUP3 MUL DUP1 CALLDATASIZE DUP4 CALLDATACOPY DUP1 DUP3 ADD SWAP2 POP POP SWAP1 POP POP SWAP1 JUMP JUMPDEST JUMPDEST DUP1 DUP3 GT ISZERO PUSH2 0x10E1 JUMPI PUSH1 0x0 DUP2 PUSH1 0x0 SWAP1 SSTORE POP PUSH1 0x1 ADD PUSH2 0x10C9 JUMP JUMPDEST POP SWAP1 JUMP JUMPDEST PUSH1 0x0 DUP1 REVERT JUMPDEST PUSH1 0x0 PUSH20 0xFFFFFFFFFFFFFFFFFFFFFFFFFFFFFFFFFFFFFFFF DUP3 AND SWAP1 POP SWAP2 SWAP1 POP JUMP JUMPDEST PUSH1 0x0 PUSH2 0x1115 DUP3 PUSH2 0x10EA JUMP JUMPDEST SWAP1 POP SWAP2 SWAP1 POP JUMP JUMPDEST PUSH2 0x1125 DUP2 PUSH2 0x110A JUMP JUMPDEST DUP2 EQ PUSH2 0x1130 JUMPI PUSH1 0x0 DUP1 REVERT JUMPDEST POP JUMP JUMPDEST PUSH1 0x0 DUP2 CALLDATALOAD SWAP1 POP PUSH2 0x1142 DUP2 PUSH2 0x111C JUMP JUMPDEST SWAP3 SWAP2 POP POP JUMP JUMPDEST PUSH1 0x0 PUSH1 0x20 DUP3 DUP5 SUB SLT ISZERO PUSH2 0x115E JUMPI PUSH2 0x115D PUSH2 0x10E5 JUMP JUMPDEST JUMPDEST PUSH1 0x0 PUSH2 0x116C DUP5 DUP3 DUP6 ADD PUSH2 0x1133 JUMP JUMPDEST SWAP2 POP POP SWAP3 SWAP2 POP POP JUMP JUMPDEST PUSH1 0x0 DUP2 SWAP1 POP SWAP2 SWAP1 POP JUMP JUMPDEST PUSH2 0x1188 DUP2 PUSH2 0x1175 JUMP JUMPDEST DUP3 MSTORE POP POP JUMP JUMPDEST PUSH1 0x0 PUSH1 0x20 DUP3 ADD SWAP1 POP PUSH2 0x11A3 PUSH1 0x0 DUP4 ADD DUP5 PUSH2 0x117F JUMP JUMPDEST SWAP3 SWAP2 POP POP JUMP JUMPDEST PUSH2 0x11B2 DUP2 PUSH2 0x1175 JUMP JUMPDEST DUP2 EQ PUSH2 0x11BD JUMPI PUSH1 0x0 DUP1 REVERT JUMPDEST POP JUMP JUMPDEST PUSH1 0x0 DUP2 CALLDATALOAD SWAP1 POP PUSH2 0x11CF DUP2 PUSH2 0x11A9 JUMP JUMPDEST SWAP3 SWAP2 POP POP JUMP JUMPDEST PUSH1 0x0 DUP1 PUSH1 0x0 DUP1 PUSH1 0x0 DUP1 PUSH1 0xC0 DUP8 DUP10 SUB SLT ISZERO PUSH2 0x11F2 JUMPI PUSH2 0x11F1 PUSH2 0x10E5 JUMP JUMPDEST JUMPDEST PUSH1 0x0 PUSH2 0x1200 DUP10 DUP3 DUP11 ADD PUSH2 0x1133 JUMP JUMPDEST SWAP7 POP POP PUSH1 0x20 PUSH2 0x1211 DUP10 DUP3 DUP11 ADD PUSH2 0x11C0 JUMP JUMPDEST SWAP6 POP POP PUSH1 0x40 PUSH2 0x1222 DUP10 DUP3 DUP11 ADD PUSH2 0x11C0 JUMP JUMPDEST SWAP5 POP POP PUSH1 0x60 PUSH2 0x1233 DUP10 DUP3 DUP11 ADD PUSH2 0x11C0 JUMP JUMPDEST SWAP4 POP POP PUSH1 0x80 PUSH2 0x1244 DUP10 DUP3 DUP11 ADD PUSH2 0x11C0 JUMP JUMPDEST SWAP3 POP POP PUSH1 0xA0 PUSH2 0x1255 DUP10 DUP3 DUP11 ADD PUSH2 0x11C0 JUMP JUMPDEST SWAP2 POP POP SWAP3 SWAP6 POP SWAP3 SWAP6 POP SWAP3 SWAP6 JUMP JUMPDEST PUSH1 0x0 PUSH1 0x20 DUP3 DUP5 SUB SLT ISZERO PUSH2 0x1278 JUMPI PUSH2 0x1277 PUSH2 0x10E5 JUMP JUMPDEST JUMPDEST PUSH1 0x0 PUSH2 0x1286 DUP5 DUP3 DUP6 ADD PUSH2 0x11C0 JUMP JUMPDEST SWAP2 POP POP SWAP3 SWAP2 POP POP JUMP JUMPDEST PUSH2 0x1298 DUP2 PUSH2 0x110A JUMP JUMPDEST DUP3 MSTORE POP POP JUMP JUMPDEST PUSH1 0x0 DUP2 ISZERO ISZERO SWAP1 POP SWAP2 SWAP1 POP JUMP JUMPDEST PUSH2 0x12B3 DUP2 PUSH2 0x129E JUMP JUMPDEST DUP3 MSTORE POP POP JUMP JUMPDEST PUSH1 0x0 PUSH1 0x80 DUP3 ADD SWAP1 POP PUSH2 0x12CE PUSH1 0x0 DUP4 ADD DUP8 PUSH2 0x117F JUMP JUMPDEST PUSH2 0x12DB PUSH1 0x20 DUP4 ADD DUP7 PUSH2 0x128F JUMP JUMPDEST PUSH2 0x12E8 PUSH1 0x40 DUP4 ADD DUP6 PUSH2 0x117F JUMP JUMPDEST PUSH2 0x12F5 PUSH1 0x60 DUP4 ADD DUP5 PUSH2 0x12AA JUMP JUMPDEST SWAP6 SWAP5 POP POP POP POP POP JUMP JUMPDEST PUSH1 0x0 DUP1 PUSH1 0x0 DUP1 PUSH1 0x0 PUSH1 0xA0 DUP7 DUP9 SUB SLT ISZERO PUSH2 0x131A JUMPI PUSH2 0x1319 PUSH2 0x10E5 JUMP JUMPDEST JUMPDEST PUSH1 0x0 PUSH2 0x1328 DUP9 DUP3 DUP10 ADD PUSH2 0x11C0 JUMP JUMPDEST SWAP6 POP POP PUSH1 0x20 PUSH2 0x1339 DUP9 DUP3 DUP10 ADD PUSH2 0x11C0 JUMP JUMPDEST SWAP5 POP POP PUSH1 0x40 PUSH2 0x134A DUP9 DUP3 DUP10 ADD PUSH2 0x11C0 JUMP JUMPDEST SWAP4 POP POP PUSH1 0x60 PUSH2 0x135B DUP9 DUP3 DUP10 ADD PUSH2 0x11C0 JUMP JUMPDEST SWAP3 POP POP PUSH1 0x80 PUSH2 0x136C DUP9 DUP3 DUP10 ADD PUSH2 0x11C0 JUMP JUMPDEST SWAP2 POP POP SWAP3 SWAP6 POP SWAP3 SWAP6 SWAP1 SWAP4 POP JUMP JUMPDEST PUSH1 0x0 PUSH1 0x5 SWAP1 POP SWAP2 SWAP1 POP JUMP JUMPDEST PUSH1 0x0 DUP2 SWAP1 POP SWAP3 SWAP2 POP POP JUMP JUMPDEST PUSH1 0x0 DUP2 SWAP1 POP SWAP2 SWAP1 POP JUMP JUMPDEST PUSH2 0x13A2 DUP2 PUSH2 0x1175 JUMP JUMPDEST DUP3 MSTORE POP POP JUMP JUMPDEST PUSH1 0x0 PUSH2 0x13B4 DUP4 DUP4 PUSH2 0x1399 JUMP JUMPDEST PUSH1 0x20 DUP4 ADD SWAP1 POP SWAP3 SWAP2 POP POP JUMP JUMPDEST PUSH1 0x0 PUSH1 0x20 DUP3 ADD SWAP1 POP SWAP2 SWAP1 POP JUMP JUMPDEST PUSH2 0x13D6 DUP2 PUSH2 0x1379 JUMP JUMPDEST PUSH2 0x13E0 DUP2 DUP5 PUSH2 0x1384 JUMP JUMPDEST SWAP3 POP PUSH2 0x13EB DUP3 PUSH2 0x138F JUMP JUMPDEST DUP1 PUSH1 0x0 JUMPDEST DUP4 DUP2 LT ISZERO PUSH2 0x141C JUMPI DUP2 MLOAD PUSH2 0x1403 DUP8 DUP3 PUSH2 0x13A8 JUMP JUMPDEST SWAP7 POP PUSH2 0x140E DUP4 PUSH2 0x13C0 JUMP JUMPDEST SWAP3 POP POP PUSH1 0x1 DUP2 ADD SWAP1 POP PUSH2 0x13EF JUMP JUMPDEST POP POP POP POP POP POP JUMP JUMPDEST PUSH1 0x0 PUSH1 0xC0 DUP3 ADD SWAP1 POP PUSH2 0x1439 PUSH1 0x0 DUP4 ADD DUP6 PUSH2 0x117F JUMP JUMPDEST PUSH2 0x1446 PUSH1 0x20 DUP4 ADD DUP5 PUSH2 0x13CD JUMP JUMPDEST SWAP4 SWAP3 POP POP POP JUMP JUMPDEST PUSH1 0x0 DUP1 PUSH1 0x40 DUP4 DUP6 SUB SLT ISZERO PUSH2 0x1464 JUMPI PUSH2 0x1463 PUSH2 0x10E5 JUMP JUMPDEST JUMPDEST PUSH1 0x0 PUSH2 0x1472 DUP6 DUP3 DUP7 ADD PUSH2 0x11C0 JUMP JUMPDEST SWAP3 POP POP PUSH1 0x20 PUSH2 0x1483 DUP6 DUP3 DUP7 ADD PUSH2 0x11C0 JUMP JUMPDEST SWAP2 POP POP SWAP3 POP SWAP3 SWAP1 POP JUMP JUMPDEST PUSH1 0x0 DUP1 PUSH1 0x40 DUP4 DUP6 SUB SLT ISZERO PUSH2 0x14A4 JUMPI PUSH2 0x14A3 PUSH2 0x10E5 JUMP JUMPDEST JUMPDEST PUSH1 0x0 PUSH2 0x14B2 DUP6 DUP3 DUP7 ADD PUSH2 0x1133 JUMP JUMPDEST SWAP3 POP POP PUSH1 0x20 PUSH2 0x14C3 DUP6 DUP3 DUP7 ADD PUSH2 0x11C0 JUMP JUMPDEST SWAP2 POP POP SWAP3 POP SWAP3 SWAP1 POP JUMP JUMPDEST PUSH1 0x0 PUSH1 0xA0 DUP3 ADD SWAP1 POP PUSH2 0x14E2 PUSH1 0x0 DUP4 ADD DUP9 PUSH2 0x117F JUMP JUMPDEST PUSH2 0x14EF PUSH1 0x20 DUP4 ADD DUP8 PUSH2 0x117F JUMP JUMPDEST PUSH2 0x14FC PUSH1 0x40 DUP4 ADD DUP7 PUSH2 0x117F JUMP JUMPDEST PUSH2 0x1509 PUSH1 0x60 DUP4 ADD DUP6 PUSH2 0x117F JUMP JUMPDEST PUSH2 0x1516 PUSH1 0x80 DUP4 ADD DUP5 PUSH2 0x117F JUMP JUMPDEST SWAP7 SWAP6 POP POP POP POP POP POP JUMP JUMPDEST PUSH32 0x4E487B7100000000000000000000000000000000000000000000000000000000 PUSH1 0x0 MSTORE PUSH1 0x11 PUSH1 0x4 MSTORE PUSH1 0x24 PUSH1 0x0 REVERT JUMPDEST PUSH1 0x0 PUSH2 0x155A DUP3 PUSH2 0x1175 JUMP JUMPDEST SWAP2 POP PUSH2 0x1565 DUP4 PUSH2 0x1175 JUMP JUMPDEST SWAP3 POP DUP3 DUP3 MUL PUSH2 0x1573 DUP2 PUSH2 0x1175 JUMP JUMPDEST SWAP2 POP DUP3 DUP3 DIV DUP5 EQ DUP4 ISZERO OR PUSH2 0x158A JUMPI PUSH2 0x1589 PUSH2 0x1520 JUMP JUMPDEST JUMPDEST POP SWAP3 SWAP2 POP POP JUMP JUMPDEST PUSH1 0x0 PUSH2 0x159C DUP3 PUSH2 0x1175 JUMP JUMPDEST SWAP2 POP PUSH2 0x15A7 DUP4 PUSH2 0x1175 JUMP JUMPDEST SWAP3 POP DUP3 DUP3 ADD SWAP1 POP DUP1 DUP3 GT ISZERO PUSH2 0x15BF JUMPI PUSH2 0x15BE PUSH2 0x1520 JUMP JUMPDEST JUMPDEST SWAP3 SWAP2 POP POP JUMP JUMPDEST PUSH32 0x4E487B7100000000000000000000000000000000000000000000000000000000 PUSH1 0x0 MSTORE PUSH1 0x32 PUSH1 0x4 MSTORE PUSH1 0x24 PUSH1 0x0 REVERT JUMPDEST PUSH32 0x4E487B7100000000000000000000000000000000000000000000000000000000 PUSH1 0x0 MSTORE PUSH1 0x12 PUSH1 0x4 MSTORE PUSH1 0x24 PUSH1 0x0 REVERT JUMPDEST PUSH1 0x0 PUSH2 0x162E DUP3 PUSH2 0x1175 JUMP JUMPDEST SWAP2 POP PUSH2 0x1639 DUP4 PUSH2 0x1175 JUMP JUMPDEST SWAP3 POP DUP3 PUSH2 0x1649 JUMPI PUSH2 0x1648 PUSH2 0x15F4 JUMP JUMPDEST JUMPDEST DUP3 DUP3 DIV SWAP1 POP SWAP3 SWAP2 POP POP JUMP JUMPDEST PUSH1 0x0 DUP2 SWAP1 POP SWAP3 SWAP2 POP POP JUMP JUMPDEST POP JUMP JUMPDEST PUSH1 0x0 PUSH2 0x166F PUSH1 0x0 DUP4 PUSH2 0x1654 JUMP JUMPDEST SWAP2 POP PUSH2 0x167A DUP3 PUSH2 0x165F JUMP JUMPDEST PUSH1 0x0 DUP3 ADD SWAP1 POP SWAP2 SWAP1 POP JUMP JUMPDEST PUSH1 0x0 PUSH2 0x1690 DUP3 PUSH2 0x1662 JUMP JUMPDEST SWAP2 POP DUP2 SWAP1 POP SWAP2 SWAP1 POP JUMP JUMPDEST PUSH1 0x0 DUP3 DUP3 MSTORE PUSH1 0x20 DUP3 ADD SWAP1 POP SWAP3 SWAP2 POP POP JUMP JUMPDEST PUSH32 0x6661696C656420746F2073656E64000000000000000000000000000000000000 PUSH1 0x0 DUP3 ADD MSTORE POP JUMP JUMPDEST PUSH1 0x0 PUSH2 0x16E1 PUSH1 0xE DUP4 PUSH2 0x169A JUMP JUMPDEST SWAP2 POP PUSH2 0x16EC DUP3 PUSH2 0x16AB JUMP JUMPDEST PUSH1 0x20 DUP3 ADD SWAP1 POP SWAP2 SWAP1 POP JUMP JUMPDEST PUSH1 0x0 PUSH1 0x20 DUP3 ADD SWAP1 POP DUP2 DUP2 SUB PUSH1 0x0 DUP4 ADD MSTORE PUSH2 0x1710 DUP2 PUSH2 0x16D4 JUMP JUMPDEST SWAP1 POP SWAP2 SWAP1 POP JUMP JUMPDEST PUSH1 0x0 DUP2 SWAP1 POP SWAP2 SWAP1 POP JUMP JUMPDEST PUSH2 0x1732 PUSH2 0x172D DUP3 PUSH2 0x1175 JUMP JUMPDEST PUSH2 0x1717 JUMP JUMPDEST DUP3 MSTORE POP POP JUMP JUMPDEST PUSH1 0x0 PUSH2 0x1744 DUP3 DUP6 PUSH2 0x1721 JUMP JUMPDEST PUSH1 0x20 DUP3 ADD SWAP2 POP PUSH2 0x1754 DUP3 DUP5 PUSH2 0x1721 JUMP JUMPDEST PUSH1 0x20 DUP3 ADD SWAP2 POP DUP2 SWAP1 POP SWAP4 SWAP3 POP POP POP JUMP JUMPDEST PUSH1 0x0 PUSH2 0x176F DUP3 PUSH2 0x1175 JUMP JUMPDEST SWAP2 POP PUSH2 0x177A DUP4 PUSH2 0x1175 JUMP JUMPDEST SWAP3 POP DUP3 PUSH2 0x178A JUMPI PUSH2 0x1789 PUSH2 0x15F4 JUMP JUMPDEST JUMPDEST DUP3 DUP3 MOD SWAP1 POP SWAP3 SWAP2 POP POP JUMP JUMPDEST PUSH1 0x0 PUSH2 0x17A0 DUP3 PUSH2 0x1175 JUMP JUMPDEST SWAP2 POP PUSH2 0x17AB DUP4 PUSH2 0x1175 JUMP JUMPDEST SWAP3 POP DUP3 DUP3 SUB SWAP1 POP DUP2 DUP2 GT ISZERO PUSH2 0x17C3 JUMPI PUSH2 0x17C2 PUSH2 0x1520 JUMP JUMPDEST JUMPDEST SWAP3 SWAP2 POP POP JUMP JUMPDEST PUSH1 0x0 DUP2 PUSH1 0x60 SHL SWAP1 POP SWAP2 SWAP1 POP JUMP JUMPDEST PUSH1 0x0 PUSH2 0x17E1 DUP3 PUSH2 0x17C9 JUMP JUMPDEST SWAP1 POP SWAP2 SWAP1 POP JUMP JUMPDEST PUSH1 0x0 PUSH2 0x17F3 DUP3 PUSH2 0x17D6 JUMP JUMPDEST SWAP1 POP SWAP2 SWAP1 POP JUMP JUMPDEST PUSH2 0x180B PUSH2 0x1806 DUP3 PUSH2 0x110A JUMP JUMPDEST PUSH2 0x17E8 JUMP JUMPDEST DUP3 MSTORE POP POP JUMP JUMPDEST PUSH1 0x0 DUP2 SWAP1 POP SWAP2 SWAP1 POP JUMP JUMPDEST PUSH1 0x0 DUP2 SWAP1 POP SWAP2 SWAP1 POP JUMP JUMPDEST PUSH2 0x1836 PUSH2 0x1831 DUP3 PUSH2 0x1811 JUMP JUMPDEST PUSH2 0x181B JUMP JUMPDEST DUP3 MSTORE POP POP JUMP JUMPDEST PUSH1 0x0 PUSH2 0x1848 DUP3 DUP7 PUSH2 0x17FA JUMP JUMPDEST PUSH1 0x14 DUP3 ADD SWAP2 POP PUSH2 0x1858 DUP3 DUP6 PUSH2 0x1825 JUMP JUMPDEST PUSH1 0x20 DUP3 ADD SWAP2 POP PUSH2 0x1868 DUP3 DUP5 PUSH2 0x1721 JUMP JUMPDEST PUSH1 0x20 DUP3 ADD SWAP2 POP DUP2 SWAP1 POP SWAP5 SWAP4 POP POP POP POP JUMP JUMPDEST PUSH1 0x0 PUSH2 0x1884 DUP3 PUSH2 0x1175 JUMP JUMPDEST SWAP2 POP PUSH32 0xFFFFFFFFFFFFFFFFFFFFFFFFFFFFFFFFFFFFFFFFFFFFFFFFFFFFFFFFFFFFFFFF DUP3 SUB PUSH2 0x18B6 JUMPI PUSH2 0x18B5 PUSH2 0x1520 JUMP JUMPDEST JUMPDEST PUSH1 0x1 DUP3 ADD SWAP1 POP SWAP2 SWAP1 POP JUMP JUMPDEST PUSH1 0x0 PUSH2 0x18CD DUP3 DUP6 PUSH2 0x1721 JUMP JUMPDEST PUSH1 0x20 DUP3 ADD SWAP2 POP PUSH2 0x18DD DUP3 DUP5 PUSH2 0x17FA JUMP JUMPDEST PUSH1 0x14 DUP3 ADD SWAP2 POP DUP2 SWAP1 POP SWAP4 SWAP3 POP POP POP JUMP JUMPDEST PUSH1 0x0 PUSH2 0x18F9 DUP3 DUP9 PUSH2 0x17FA JUMP JUMPDEST PUSH1 0x14 DUP3 ADD SWAP2 POP PUSH2 0x1909 DUP3 DUP8 PUSH2 0x1721 JUMP JUMPDEST PUSH1 0x20 DUP3 ADD SWAP2 POP PUSH2 0x1919 DUP3 DUP7 PUSH2 0x1721 JUMP JUMPDEST PUSH1 0x20 DUP3 ADD SWAP2 POP PUSH2 0x1929 DUP3 DUP6 PUSH2 0x1721 JUMP JUMPDEST PUSH1 0x20 DUP3 ADD SWAP2 POP PUSH2 0x1939 DUP3 DUP5 PUSH2 0x17FA JUMP JUMPDEST PUSH1 0x14 DUP3 ADD SWAP2 POP DUP2 SWAP1 POP SWAP7 SWAP6 POP POP POP POP POP POP JUMP JUMPDEST PUSH1 0x0 PUSH2 0x1958 DUP3 DUP10 PUSH2 0x17FA JUMP JUMPDEST PUSH1 0x14 DUP3 ADD SWAP2 POP PUSH2 0x1968 DUP3 DUP9 PUSH2 0x1721 JUMP JUMPDEST PUSH1 0x20 DUP3 ADD SWAP2 POP PUSH2 0x1978 DUP3 DUP8 PUSH2 0x1721 JUMP JUMPDEST PUSH1 0x20 DUP3 ADD SWAP2 POP PUSH2 0x1988 DUP3 DUP7 PUSH2 0x1721 JUMP JUMPDEST PUSH1 0x20 DUP3 ADD SWAP2 POP PUSH2 0x1998 DUP3 DUP6 PUSH2 0x17FA JUMP JUMPDEST PUSH1 0x14 DUP3 ADD SWAP2 POP PUSH2 0x19A8 DUP3 DUP5 PUSH2 0x1721 JUMP JUMPDEST PUSH1 0x20 DUP3 ADD SWAP2 POP DUP2 SWAP1 POP SWAP8 SWAP7 POP POP POP POP POP POP POP JUMP INVALID LOG2 PUSH5 0x6970667358 0x22 SLT KECCAK256 RETURN 0xBA DUP1 0x24 GT SGT 0xAA PUSH3 0x1DEB60 0xDA 0xB4 0xCE 0x21 DIV SWAP12 EXTCODEHASH 0x26 GASLIMIT 0x2F SWAP3 0x29 0xEE CALLCODE MUL 0xEA CALLER 0xAC SGT LOG2 0xE4 PUSH5 0x736F6C6343 STOP ADDMOD SGT STOP CALLER "},"methodIdentifiers":{"betIdsByAddress(address,uint256)":"7190fd65","betInfo(uint256)":"2d629ed4","betPrice()":"cfd8a175","checkAddress(address)":"0ddcfe8e","currentBetId()":"5b4a9b51","gameValues(uint256,uint256)":"3e96d09a","getRandomNumber()":"dbdff2c1","getReward(address)":"c00007b0","makeBet(address,uint256,uint256,uint256,uint256,uint256)":"2b6e2e84","playGame(uint256,uint256,uint256,uint256,uint256)":"3c1c5597","userValues(uint256,uint256)":"74ce9722"}}}}}